:020000040800F2
:10000000700D0020CD010008555500085755000817
:100010005B5500085F5500086355000800000000AC
:10002000000000000000000000000000675500080C
:1000300069550008000000006B5500083F58000893
:10004000E7010008E7010008E7010008E7010008F0
:10005000E7010008E701000851580008E70100081F
:10006000E7010008E7010008E7010008E7010008D0
:10007000E7010008E7010008E7010008EB58000865
:10008000E7010008E7010008E7010008E7010008B0
:100090000F590008E7010008E70100087D58000833
:1000A000E7010008E7010008E7010008E701000890
:1000B0006D550008C3550008E7010008E701000876
:1000C000E7010008E7010008E7010008E701000870
:1000D000E7010008E1550008A75700084556000849
:1000E000E7010008E7010008E7010008E701000850
:1000F000E7010008E7010008E7010008E701000840
:10010000E7010008E9580008E7010008E7010008D6
:10011000E7010008A15A0008E7010008E70100080C
:10012000E7010008E7010008E7010008E70100080F
:1001300000F002F800F03AF80AA090E8000C8244BF
:100140008344AAF10107DA4501D100F02FF8AFF29C
:10015000090EBAE80F0013F0010F18BFFB1A43F0A5
:1001600001031847CC910000EC910000103A24BF25
:1001700078C878C1FAD8520724BF30C830C144BF0C
:1001800004680C607047000000230024002500264E
:10019000103A28BF78C1FBD8520728BF30C148BFEA
:1001A0000B6070471FB51FBD10B510BD07F0DAFF1B
:1001B0001146FFF7F7FF04F079FC07F0F8FF03B4EE
:1001C000FFF7F2FF03BC07F0FBFF00000948804780
:1001D00009480047FEE7FEE7FEE7FEE7FEE7FEE729
:1001E000FEE7FEE7FEE7FEE704480549054A064B41
:1001F00070470000EB020008310100087007002082
:10020000700D002070090020700900200CB500203E
:10021000019000906C48006840F480306A490860A2
:1002200000BF6948006800F4003000900198401C4D
:100230000190009818B90198B0F5A06FF1D162480B
:10024000006800F4003010B10120009001E00020AF
:1002500000900098012843D15C48006840F01000ED
:100260005A4908600846006820F003000860084604
:10027000006840F0020008605348406852494860F6
:100280000846406848600846406840F4806048601E
:100290000846406820F47C1048600846406840F4F6
:1002A000E81048600846006840F08070086000BFB1
:1002B0004548006800F000700028F9D042484068C6
:1002C00020F00300404948600846406840F00200C2
:1002D000486000BF3C48406800F00C000828F9D195
:1002E0000CBD10B5FFF792FF10BD10B53648006881
:1002F00040F001003449086008464068344908402D
:100300003149486008460068324908402E49086073
:100310000846006820F4802008600846406820F401
:10032000FE0048604FF41F008860FFF7DAFF4FF0CF
:1003300000602949086010BD10B50021002000228E
:10034000214B5B6803F00C0121B1042906D0082978
:1003500028D107E0214B224C236027E01F4B204C83
:10036000236023E0184B5B6803F47010164B5B6846
:1003700003F48032022303EB904022B9194B43432C
:10038000174C23600DE0104B5B6803F4003323B17E
:10039000144B4343124C236003E0104B4343104C77
:1003A000236003E00D4B0E4C236000BF00BF064BE3
:1003B0005B68C3F303130C4CE15C094B1B68CB4037
:1003C000074C236010BD00000010024000200240D6
:1003D0000000FFF8FFFFF6FE08ED00E000127A00D3
:1003E0000000002000093D00040000202DE9F04F2E
:1003F00091B005460C4691461E46002D7ED1012146
:10040000022002F0FEFF40F2CF20ADF8340040F2AF
:10041000CF70ADF830000020ADF83600ADF83200F6
:100420000CA9FE4803F05CF87020ADF820000CBB6E
:100430000121042002F0D8FF4020ADF83C00182034
:100440008DF83F0003208DF83E000FA9F44802F01C
:100450004FFB0120ADF82200ADF826600220ADF878
:10046000280008A9ED4803F03AFB0821EB4803F007
:100470006EFFD2E0012C42D10121042002F0B4FF32
:100480008020ADF83C0018208DF83F0003208DF847
:100490003E000FA9E24802F02BFB0120ADF822003C
:1004A000304608F047F9CDE90201484608F042F924
:1004B00082460022DB4B07F071FFCDE90001DDE948
:1004C000022308F087F90022D74BCDE9040107F099
:1004D000B1FE07460022D54B07F060FFCDE90601CB
:1004E00008F0E4F880B2ADF8260008A9CB4803F084
:1004F00038FB0821C94803F033FF8EE092E0022C5C
:1005000041D10121082002F06FFF0120ADF83C002D
:1005100018208DF83F0003208DF83E000FA9C44835
:1005200002F0E6FA0120ADF82200304608F002F9A8
:10053000CDE90401484608F0FDF80022B94BCDE9A9
:10054000000107F02BFFCDE90201DDE9042308F0EB
:1005500041F907460022B44B07F06CFE82460022A8
:10056000B24B07F01BFFCDE9060108F09FF880B2FF
:10057000ADF8260008A9A94803F040FB0821A748C8
:1005800003F0FBFE49E0032C45D10121082002F0D5
:100590002BFF0220ADF83C0018208DF83F0003200F
:1005A0008DF83E000FA9A24802F0A2FA0120ADF892
:1005B0002200304608F0BEF8CDE90001484608F0B8
:1005C000B9F882460022974B07F0E8FE0746DDE9BE
:1005D000002308F0FFF80022934BCDE9020107F059
:1005E00029FE0022914BCDE9040107F0D7FECDE9A9
:1005F000060108F05BF880B2ADF8260008A987482C
:1006000003F047FB0821854803F0C0FE0121834821
:1006100003F06DFE01E000BFFEE701217F4802F01C
:1006200047FF63E2012D7CD10121042002F0E9FEA5
:1006300040F2CF20ADF8340040F2CF70ADF830007A
:100640000020ADF83600ADF832000CA9794802F070
:1006500047FF7020ADF820000CBB0121082002F0FC
:10066000C3FE4020ADF83C0018208DF83F00032069
:100670008DF83E000FA96E4802F03AFA0120ADF85D
:100680002200ADF826600220ADF8280008A96948CC
:1006900003F025FA0821674803F059FEE4E0012C35
:1006A00043D10121082002F09FFE8020ADF83C00DC
:1006B00018208DF83F0003208DF83E000FA95C48FC
:1006C00002F016FA0120ADF82200304608F032F8A8
:1006D000CDE90201484608F02DF80022514BCDE942
:1006E000000107F05BFE8246DDE9022308F072F8A4
:1006F000074600224C4B07F09DFD00224B4BCDE9F5
:10070000040107F04BFECDE9060107F0CFFF80B2F0
:10071000ADF8260008A9474803F023FA0821454808
:1007200000E0A6E003F01CFE9EE0022C41D1012176
:10073000082002F059FEE001ADF83C0018208DF8C9
:100740003F0003208DF83E000FA9394802F0D0F990
:100750000120ADF82200304607F0ECFFCDE90001A2
:10076000484607F0E7FF824600222E4B07F016FEB0
:100770000746DDE9002308F02DF800222A4BCDE9D9
:10078000020107F057FD0022284BCDE9040107F0D4
:1007900005FECDE9060107F089FF80B2ADF826001D
:1007A00008A9244803F02AFA0821224803F0E5FDAD
:1007B0005AE0032C56D10121082002F015FE4FF417
:1007C0000070ADF83C0018208DF83F0003208DF834
:1007D0003E000FA9164802F08BF90120ADF8220067
:1007E000304607F0A7FFCDE90201484607F0A2FF17
:1007F00000220C4BCDE9000107F0D0FD0746DDE9F2
:10080000022307F0E7FF82460022074B07F012FDA4
:100810000022064BCDE904010EE000000004004078
:1008200000080140000059400000E03F0000244063
:10083000000C01400008004007F0B0FDCDE90601C2
:1008400007F034FF80B2ADF8260008A9FD4803F098
:1008500020FA0821FB4803F099FD0121F94803F033
:1008600046FD01E000BFFEE70121F64802F020FE50
:100870003CE1022D7DD10121084602F0C2FDA9F123
:10088000010080B2ADF834004720ADF83000002000
:10089000ADF83600ADF832000CA9680702F020FE72
:1008A0006020ADF82000ECBB0121042002F09CFD8B
:1008B0000120ADF83C0018208DF83F0003208DF892
:1008C0003E000FA9E04802F013F90120ADF8220024
:1008D000304607F02FFF07468846484607F02AFFB4
:1008E0000022DA4BCDE9000107F058FD3A464346B5
:1008F000CDE9020107F06EFF82460022D44B07F0DB
:1009000099FC0022D34BCDE9040107F047FDCDE966
:10091000060107F0CBFE80B2ADF826000020ADF84E
:10092000280000E008E008A9680703F0D8F80821CB
:10093000C80603F00CFDD2E0012C44D101210420B3
:1009400002F052FD0220ADF83C0018208DF83F0067
:1009500003208DF83E000FA9BB4802F0C9F8012022
:10096000ADF82200304607F0E5FE82468B46484649
:1009700000E0B9E007F0DEFE0022B44BCDE9000153
:1009800007F00CFD074652465B4607F023FF0022A6
:10099000AF4BCDE9020107F04DFC0022AD4BCDE994
:1009A000040107F0FBFCCDE9060107F07FFE80B2F1
:1009B000ADF8260008A9A00703F0D3F80821C8065F
:1009C00003F0CEFC8BE0022C41D10121042002F087
:1009D0000BFD0420ADF83C0018208DF83F000320EB
:1009E0008DF83E000FA9984802F082F80120ADF87A
:1009F0002200304607F09EFECDE90001484607F090
:100A000099FE07460022914B07F0C8FC8246DDE9BB
:100A1000002307F0DFFE00228D4BCDE9020107F035
:100A200009FC00228B4BCDE9040107F0B7FCCDE9AE
:100A3000060107F03BFE80B2ADF8260008A960076A
:100A400003F0DCF80821C80603F097FC47E0032C0C
:100A500043D10121042002F0C7FC0820ADF83C007E
:100A600018208DF83F0003208DF83E000FA976482E
:100A700002F03EF80120ADF82200304607F05AFEA1
:100A800082468B46484607F055FE00226F4BCDE963
:100A9000000107F083FC074652465B4607F09AFECA
:100AA00000226B4BCDE9020107F0C4FB0022694B29
:100AB000CDE9040107F072FCCDE9060107F0F6FD6F
:100AC00080B2ADF8260008A94FF0804003F0E1F8AD
:100AD0000821C80603F05AFC01E000BFFEE701212F
:100AE000880702F0E5FC01E000BFFEE711B0BDE8B9
:100AF000F08F2DE9F04F8DB005460C46164699460D
:100B0000002D7DD16020ADF8200084BB0120ADF820
:100B10002200484607F00EFECDE90401304607F0FA
:100B200009FE0022494BCDE9000107F037FCCDE971
:100B30000201DDE9042307F04DFE0022444BCDE91C
:100B4000060107F077FB82460022424B07F026FCA5
:100B5000074607F0ABFD80B2ADF8260008A93E4875
:100B600002F0BDFF08213C4803F0F1FB5AE2FFE729
:100B7000012C30D10120ADF82200484607F0DAFD03
:100B8000CDE90201304607F0D5FD074600222F4B84
:100B900007F004FCCDE90001DDE9022307F01AFEAD
:100BA00000222B4BCDE9040107F044FB82460022D2
:100BB000284B07F0F3FBCDE9060107F077FD80B283
:100BC000ADF8260008A9244802F0CBFF08212248EE
:100BD00003F0C6FB26E2022C40D10120ADF8220032
:100BE000484607F0A7FD07468846304607F0A2FDB5
:100BF0000022164BCDE9000107F0D0FB3A4600E099
:100C000061E04346CDE9020107F0E4FD0022104B0C
:100C1000CDE9040107F00EFB00220E4BCDE90601E1
:100C200007F0BCFB824607F041FD80B2ADF826001C
:100C300008A9094802F0E2FF0821074803F09DFBDC
:100C4000F0E10000000800400008014000005940A9
:100C50000000E03F0000244000040040032C30D19D
:100C60000120ADF82200484607F064FDCDE90201FD
:100C7000304607F05FFD0022FE4BCDE9000107F092
:100C80008DFB8246DDE9022307F0A4FD0746002222
:100C9000F94B07F0CFFA0022F84BCDE9040107F039
:100CA0007DFBCDE9060107F001FD80B2ADF826001D
:100CB00008A9F34802F0EDFF0821F14803F066FBB4
:100CC000B0E100BFFEE7012D7DD16020ADF820002E
:100CD00084BB0120ADF82200484607F02BFDCDE98A
:100CE0000001304607F026FD07460022E14B07F0E1
:100CF00055FB8246DDE9002307F06CFD0022DE4B48
:100D0000CDE9020107F096FA0022DC4BCDE904019F
:100D100007F044FBCDE9060107F0C8FC80B2ADF84E
:100D2000260008A9D74802F0DAFE0821D54803F0CA
:100D30000EFB77E1FFE7012C30D10120ADF8220056
:100D4000484607F0F7FCCDE90001304607F0F2FC19
:100D500007460022C74B07F021FB8246DDE900234E
:100D600007F038FD0022C44BCDE9020107F062FA1A
:100D70000022C24BCDE9040107F010FBCDE90601CA
:100D800007F094FC80B2ADF8260008A9BD4802F037
:100D9000E8FE0821BB4803F0E3FA43E1022C32D11C
:100DA0000120ADF82200484607F0C4FCCDE902015D
:100DB000304607F0BFFC07460022AE4B07F0EEFAC4
:100DC000CDE9000100E054E0DDE9022307F002FD77
:100DD0000022A94BCDE9040107F02CFA0022A74B11
:100DE000CDE9060107F0DAFA824607F05FFC80B22F
:100DF000ADF8260008A9A34802F000FF0821A14889
:100E000003F0BBFA0EE1032C31D10120ADF8220032
:100E1000484607F08FFC07468846304607F08AFCB4
:100E200082460022934B07F0B9FA3A464346CDE991
:100E3000000107F0CFFC00228F4BCDE9020107F043
:100E4000F9F900228D4BCDE9040107F0A7FACDE9AD
:100E5000060107F02BFC80B2ADF8260008A98948EE
:100E600002F017FF0821874803F090FADAE000BF8C
:100E7000FEE7022D7ED16020ADF8200084BB01206A
:100E8000ADF82200484607F055FCCDE90201304696
:100E900007F050FC07460022764B07F07FFACDE9B9
:100EA0000001DDE9022307F095FC82460022724B27
:100EB00007F0C0F90022714BCDE9040107F06EFA8A
:100EC000CDE9060107F0F2FB80B2ADF8260008A9D3
:100ED000680702F004FE0821C80603F038FAA1E012
:100EE000FFE7012C30D10120ADF82200484607F081
:100EF00021FCCDE90201304607F01CFC0746002228
:100F00005C4B07F04BFACDE90001DDE9022307F065
:100F100061FC82460022584B07F08CF90022574BA7
:100F2000CDE9040107F03AFACDE9060107F0BEFB6E
:100F300080B2ADF8260008A9A00702F012FE082131
:100F4000C80603F00DFA6DE0022C33D10120ADF894
:100F50002200484607F0EEFB82468B46304607F0FB
:100F6000E9FB0022434BCDE9000107F017FA0746E1
:100F7000524600E054E05B4607F02CFC00223E4B5A
:100F8000CDE9020107F056F900223C4BCDE90401FE
:100F900007F004FACDE9060107F088FB80B2ADF84E
:100FA000260008A9600702F029FE0821C80603F000
:100FB000E4F937E0032C31D10120ADF82200484696
:100FC00007F0B8FBCDE90201304607F0B3FB002281
:100FD000284BCDE9000107F0E1F90746DDE90223DE
:100FE00007F0F8FB82460022234B07F023F900228A
:100FF000224BCDE9040107F0D1F9CDE9060107F054
:1010000055FB80B2ADF8260008A94FF0804002F0F1
:1010100040FE0821C80603F0B9F903E000BFFEE76F
:1010200000BFFEE70DB0BDE8F08F1FB50121042021
:1010300002F0E7F90121402002F0D6F90120ADF8D5
:101040000C0004208DF80F0003A90F4801F050FD9B
:101050000020ADF800004FF6FF70ADF8040000204E
:10106000ADF80600ADF802006946064802F038FA0D
:1010700000230BE0000059400000E03F0000244046
:101080000004004000080040001801401A461946BC
:101090004A4803F0C3F80021484803F0BCFA012194
:1010A000464802F005FA1FBD00B589B001210420B1
:1010B00002F0A7F90121082002F096F94FF47070B0
:1010C000ADF8140048208DF8170005A93C4801F040
:1010D0000FFD4FF6FF70ADF80C004720ADF808008B
:1010E0000020ADF80E00ADF80A0002A9334802F066
:1010F000F7F90020ADF81800ADF81A000120ADF89E
:101100001C000020ADF81E00ADF8200006A92B48F9
:1011100002F03AFF0420ADF818000020ADF81A00E4
:101120000120ADF81C000020ADF81E00ADF8200035
:1011300006A9224802F028FF0820ADF81800002078
:10114000ADF81A000120ADF81C000020ADF81E001B
:10115000ADF8200006A9194802F016FF0C20ADF8E2
:1011600018000020ADF81A000120ADF81C00002086
:10117000ADF81E00ADF8200006A9104802F004FFEB
:101180001E208DF8040000208DF805008DF8060063
:1011900001208DF8070001A800F019F81F21074869
:1011A00003F07CFA01221E21044802F08DF901218E
:1011B000024802F07DF909B000BD000000080040BF
:1011C000000C014031490143314A1160704770B54C
:1011D000002100230F22C47804B32D4C246804F4AA
:1011E000E064C4F5E064210AC1F10403CA40447814
:1011F00004FA03F18478144021430901254C067850
:10120000A155047804F01F050124AC4005786D1148
:10121000AD0005F1E025C5F8004109E0047804F0CF
:101220001F050124AC401C4D0678761145F8264078
:1012300070BD1A4A0A400243154B1B1F1A607047C3
:1012400039B1134A121D12680243114B1B1D1A605B
:1012500006E00F4A121D126882430D4B1B1D1A60D7
:101260007047042808D14FF0E021096941F00401DA
:101270004FF0E022116107E04FF0E021096921F011
:1012800004014FF0E0221161704700000000FA05F0
:101290000CED00E000E400E080E100E080FFFF1FD3
:1012A00021B1826842F4A002826003E0826822F4E5
:1012B000A00282607047014600208A6802F00402A2
:1012C0000AB1012000E000207047816841F004016C
:1012D00081607047014600208A6802F008020AB166
:1012E000012000E000207047816841F00801816022
:1012F000704721B1826842F00102826003E0826897
:1013000022F001028260704721B1826842F480724B
:10131000826003E0826822F4807282607047F0B5D8
:1013200004460D4600200021092D11DDE068A5F1DD
:101330000A0606EB4607072606FA07F18843A5F1D9
:101340000A0606EB460603FA06F10843E0600CE0E5
:10135000206905EB4507072606FA07F1884305EBE8
:10136000450603FA06F108432061072A0FDA606B8D
:10137000561E06EB86071F2606FA07F18843561EFF
:1013800006EB860605FA06F10843606322E00D2AA3
:101390000FDA206BD61F06EB86071F2606FA07F129
:1013A0008843D61F06EB860605FA06F1084320633C
:1013B00010E0E06AA2F10D0606EB86071F2606FA8A
:1013C00007F18843A2F10D0606EB860605FA06F141
:1013D0000843E062F0BD30B50246002000235068AB
:1013E000F94C20400D790C6844EA052420435060F4
:1013F0009068F64C2040D1E902542C434D7944EAE0
:10140000450420439060D06A20F470000C7C641E78
:10141000E4B2234340EA0350D06230BD00B591B03E
:101420000121084601F0D3FF01214FF4047001F0BF
:10143000DBFF0220ADF8000000208DF803006946B4
:10144000E34801F055FBE34801F098F9E2480690C3
:10145000E2480790002008900120099000200A909F
:101460000B904FF480700C9080000D9020200E9017
:1014700000020F900020109006A9D64801F020FA33
:101480000121D44801F047FA002001908DF80800AE
:1014900001208DF809004FF4602003900020049093
:1014A00001208DF8140001A9CB484C38FFF793FFB9
:1014B0004FF4004001F0FCFE062301220B21C64838
:1014C0004C38FFF72CFF0121C3484C38FFF71CFFB5
:1014D0000121C1484C38FFF70CFFBF484C38FFF7DB
:1014E00003FF00BFBC484C38FFF7F4FE0028F9D1D9
:1014F000B9484C38FFF7E9FE00BFB7484C38FFF752
:10150000DAFE0028F9D10121B3484C38FFF7C8FEB4
:1015100011B000BD40B1B0494439096841F400013F
:10152000AD4A443A116007E0AB494439096821F4F7
:101530000001A94A443A1160704730B587B00546AA
:101540000C46A5484C38854271D101214FF40170F9
:1015500001F04AFF54B90120ADF8040000208DF8D5
:10156000070001A99E4801F0C3FA69E0012C0AD1E5
:101570000220ADF8040000208DF8070001A998486A
:1015800001F0B6FA5CE0022C0AD10420ADF80400A8
:1015900000208DF8070001A9914801F0A9FA4FE059
:1015A000032C0AD10820ADF8040000208DF80700B4
:1015B00001A98B4801F09CFA42E0042C0AD11020CA
:1015C000ADF8040000208DF8070001A9844801F05F
:1015D0008FFA35E0052C0AD12020ADF80400002058
:1015E0008DF8070001A97E4801F082FA28E0062C58
:1015F0000AD14020ADF8040000208DF8070001A9B1
:10160000774801F075FA1BE0072C0AD18020ADF86D
:10161000040000208DF8070001A9714801F068FA64
:101620000EE0102C04D10120FFF774FF08E03BE02E
:10163000112C03D10120FFF76DFF01E000BFFEE791
:10164000002002908DF80C0001208DF80D004FF461
:10165000602004900020059001208DF8180002A958
:101660005D484C38FFF7B7FE4FF4004001F020FE14
:10167000012159484C38FFF73CFE57484C38FFF7DA
:1016800033FE00BF54484C38FFF724FE0028F9D140
:1016900051484C38FFF719FE00BF4F484C38FFF750
:1016A0000AFE0028F9D14FE14E4885427AD1012146
:1016B000001501F099FE082C0ED10121082001F03F
:1016C00093FE0120ADF8040000208DF8070001A969
:1016D000454801F00DFA8BE0092C0ED101210820BC
:1016E00001F082FE0220ADF8040000208DF8070012
:1016F00001A93D4801F0FCF97AE00A2C0ED1012144
:10170000102001F071FE0120ADF8040000208DF8DA
:10171000070001A92E4801F0EBF969E00B2C0ED16E
:101720000121102001F060FE0220ADF8040000202D
:101730008DF8070001A9264801F0DAF958E00C2CD1
:101740000ED10121102001F04FFE0420ADF804005D
:1017500000208DF8070001A91D4801F0C9F947E0F4
:101760000D2C0ED10121102001F03EFE0820ADF815
:10177000040000208DF8070001A9154801F0B8F910
:1017800036E00E2C0FD10121102001F02DFE10208B
:10179000ADF8040000208DF8070001A90C4801F005
:1017A000A7F925E052E00F2C20D10121102001F0F3
:1017B0001BFE2020ADF8040000208DF8070001A9D1
:1017C000034801F095F913E0FFFEF0FFFDF7F1FF8C
:1017D00000100140080002404C2401402C00002071
:1017E0000008014000280140000C014000BFFEE756
:1017F000002002908DF80C0001208DF80D004FF4B0
:10180000602004900020059001208DF8180002A9A6
:10181000FB48FFF7E0FD4FF4404001F049FD012196
:10182000F748FFF766FDF648FFF75EFD00BFF44896
:10183000FFF750FD0028FAD1F148FFF746FD00BF41
:10184000EF48FFF738FD0028FAD17DE0ED488542EA
:1018500078D1012148F2800001F0C6FD042C0AD1A4
:101860004020ADF8040000208DF8070001A9E648EB
:1018700001F03EF937E0052C0AD18020ADF80400D4
:1018800000208DF8070001A9DF4801F031F92AE0B6
:10189000062C0BD14FF48070ADF8040000208DF8B9
:1018A000070001A9D84801F023F91CE0072C0BD14F
:1018B0004FF40070ADF8040000208DF8070001A976
:1018C000D14801F015F90EE0082C0AD1E001ADF87D
:1018D000040000208DF8070001A9CB4801F008F9A9
:1018E00001E000BFFEE7002002908DF80C0001200F
:1018F0008DF80D004FF46020049000200590012029
:101900008DF8180002A9BF48FFF765FD4FF440406D
:1019100001F0CEFC0121BB48FFF7EBFCB948FFF713
:10192000E3FC00BFB748FFF7D5FC0028FAD1B54863
:10193000FFF7CBFC00BFB348FFF7BDFC0028FAD18E
:1019400002E0FFE700BFFEE707B030BD0146C86C0C
:1019500080B270470246002013680B400BB1012093
:1019600000E00020704730B504460D4605230122F3
:1019700029462046FFF7D3FC01212046FFF790FCC3
:1019800000BF02212046FFF7E5FF0028F9D02046DE
:10199000FFF7DCFF30BD10B504469C48844208D1F7
:1019A0000121401501F03AFD0021601501F036FDDE
:1019B00017E09348844208D10121001501F02EFD63
:1019C0000021201501F02AFD0BE08E48844208D149
:1019D0000121C80301F022FD00214FF4004001F075
:1019E0001DFD10BD00210160017141718160C16068
:1019F00001210174704710B50023CBB21AB14468BD
:101A00001C43446002E044689C43446010BD0146AE
:101A100000208A6802F480020AB1012000E0002060
:101A2000704710B50A4600210023416821F4604147
:101A3000531E41EA4331416010BD21B1426842F476
:101A40000062426003E0426822F400624260704734
:101A500021B1826842F48012826003E0826822F43D
:101A600080128260704769484C300068704721B12D
:101A7000426842F48062426003E0426822F480627D
:101A80004260704721B1426842F48052426003E0F4
:101A9000426822F48052426070470A460021816801
:101AA00021F4E04111438160704721B1826842F422
:101AB0000042826003E0826822F400428260704744
:101AC00021B1826842F40212826003E0826822F44B
:101AD000021282607047014600208A6802F40012F8
:101AE0000AB1012000E000207047F0B50446154619
:101AF000002000220026092911DDE068A1F10A0773
:101B000007EB470C072707FA0CF29043A1F10A07ED
:101B100007EB470703FA07F21043E0600CE0206987
:101B200001EB410C072707FA0CF2904301EB410748
:101B300003FA07F210432061A06BC0F30156EF1CBB
:101B400006F1010CA7EB0C0707EB870C1F2707FA20
:101B50000CF29043EF1C06F1010CA7EB0C0707EB0E
:101B6000870701FA07F21043A063F0BD10B50A46DB
:101B700000210023816B21F44011531E41EA0351DF
:101B8000816310BD08B5002300930090009B0B44B7
:101B90000093009B1A6008BD08B502460020009023
:101BA000009201F12800009B184400900098006802
:101BB00080B208BD0A4600214168154B1940114307
:101BC000416070474162826270470A460021416865
:101BD00021F01F01114341607047CA430260704702
:101BE00070B502460020002300240B125568CEB2C7
:101BF00005EA060415681D4065B15CB101200AE0E4
:101C000000280140003C0140001C0140002401402C
:101C1000FFFD3FFF002070BD00220A12D343036086
:101C2000704700001AB143690B43436102E0436906
:101C30008B434361704710B50021837A012202FA79
:101C400003F1FB4A126842F00102F94B1A60F84AAC
:101C50001C3212688A43F64B1C331A60027BCAB9E5
:101C6000F34A0C3212688A43F14B0C331A604288F3
:101C7000C38842EA0343EE4A4032847A42F8343061
:101C80000288838842EA0343E94A4032847A02EBBD
:101C9000C4025360027B012A19D1E54A0C32126852
:101CA0000A43E34B0C331A604288038842EA034339
:101CB000DF4A4032847A42F83430C288838842EA6C
:101CC0000343DB4A4032847A02EBC4025360C27A97
:101CD0003AB9D74A121D12688A43D54B1B1D1A60A8
:101CE00006E0D34A121D12680A43D14B1B1D1A602D
:101CF000028932B9CE4A143212688A43CC4B14336B
:101D00001A600289012A06D1C94A143212680A43AC
:101D1000C74B14331A60427B012A06D1C44A1C32D5
:101D200012680A43C24B1C331A60C14A126822F07F
:101D30000102BF4B1A6010BD30B5024600200023DF
:101D4000146824F002041460146844F00104146060
:101D500000E05B1C546804F001041CB94FF6FF74EA
:101D6000A342F6D1546804F001040CB900206CE0E1
:101D70008C79012C04D1146844F08004146003E0D1
:101D8000146824F080041460CC79012C04D1146808
:101D900044F04004146003E0146824F0400414602C
:101DA0000C7A012C04D1146844F02004146003E080
:101DB000146824F0200414604C7A012C04D11468B7
:101DC00044F01004146003E0146824F0100414605C
:101DD0008C7A012C04D1146844F00804146003E0E8
:101DE000146824F008041460CC7A012C04D114681F
:101DF00044F00404146003E0146824F00404146044
:101E00008C78A407CD7844EA05640D7944EA05444A
:101E10004D7944EA05540D886D1E2C43D461146835
:101E200024F001041460002300E05B1C546804F0FB
:101E300001041CB14FF6FF74A342F6D1546804F0BC
:101E400001040CB1002000E0012030BD00218171AF
:101E5000C171017241728172C1728170C1700321BE
:101E600001710221417101210180704710B50446C2
:101E70007048844209D10121480601F0DCFA0021B2
:101E80004FF0007001F0D7FA08E00121880601F058
:101E9000D2FA00214FF0806001F0CDFA10BD10B5EC
:101EA0008AB004460121092001F09EFA012148066A
:101EB00001F0A7FA01214FF4EA1001F0DAF84FF42B
:101EC0008070ADF8240048208DF8270003208DF89D
:101ED000260009A9584800F00BFE4FF40070ADF839
:101EE000240018208DF8270003208DF8260009A96A
:101EF000514800F0FDFD4FF4E060FFF763F9142056
:101F00008DF8200000208DF8210004208DF822009B
:101F100001208DF8230008A8FFF759F94548FFF77D
:101F2000A5FF05A8FFF792FF00208DF81A000120F9
:101F30008DF81B008DF81C0000208DF81D008DF819
:101F40001E008DF81F008DF8160001208DF8170077
:101F500005208DF8180002208DF819000420ADF836
:101F6000140005A93348FFF7E7FE00208DF80E00A6
:101F70008DF80F0001208DF81000C4F34F30ADF83C
:101F80000400042000EBC40080B2ADF806004FF658
:101F9000FF70ADF80800ADF80A000020ADF80C00A5
:101FA00001208DF8110001A8FFF745FE0122022152
:101FB0002048FFF737FE0AB010BD10B502460020DA
:101FC000936803F08063B3F1806F00D110E09368F1
:101FD00003F00063B3F1006F01D1012008E09368C2
:101FE00003F08053B3F1805F01D1022000E00420B0
:101FF00004287AD002F5C07303EB00131B6803F0CA
:10200000010402F5C07303EB00131C600B7AABB93B
:102010004B7A0C8843EA445302F5C07404EB001475
:102020002468234302F5C07404EB0014236016E017
:102030000066004000640040000C01400B7A4C68D0
:1020400043EAC4034C7A234302F5C07404EB001442
:102050002468234302F5C07404EB001423608B7AD8
:1020600003F00F038B7202F5C07303EB00135B6880
:1020700023F00F0402F5C07303EB00135C6002F55C
:10208000C07303EB00135B688C7A234302F5C074C2
:1020900004EB001463608B7B1C064B7B44EA034417
:1020A0000B7B44EA0323CC7A234302F5C07404EB90
:1020B0000014A3608B7C1C064B7C44EA03440B7C1D
:1020C00044EA0323CC7B234302F5C07404EB0014E1
:1020D000E36002F5C07303EB00131B6843F00104D7
:1020E00002F5C07303EB00131C6010BD2DE9F04135
:1020F00085B080460F4614461D46002601970420F1
:102100008DF8080000208DF809008DF80A5000BFF6
:1021100006E021780DF10B008155641C701CC6B2DD
:10212000AE42F6DB69464046FFF747FF05B0BDE823
:10213000F081F749096841F00101F54A1160114643
:10214000096843F60E729143F14A1160114609681D
:1021500041EA002111601146096821F00101116076
:10216000704721B1026842F48032026003E00268E5
:1021700022F4803202607047E1B1026842F08002CE
:1021800002604FF4C272125842F480734FF4C2726C
:1021900013504FF4CA72125842F480734FF4CA724B
:1021A00013504FF4D272125842F480734FF4D2722B
:1021B00013501BE0026822F0800202604FF4C272EA
:1021C000125822F480734FF4C27213504FF4CA7243
:1021D000125822F480734FF4CA7213504FF4D27223
:1021E000125822F480734FF4D2721350704710B516
:1021F0000246002321B1012907D002290FD109E0AD
:102200009068C44C00EA04030BE09068C24C00EAFA
:10221000040306E09068C14C00EA040301E00023D7
:1022200000BF00BFBE4C181BA34216D007DC83B111
:102230006FF08060184470B1022818D111E0B0F539
:10224000007F10D0B74C204448B1B0F5003F0ED10C
:102250000BE002230DE000230BE0002309E0002344
:1022600007E0012305E0012303E0012301E000234F
:1022700000BF00BFD8B210BD21B1012907D002298B
:102280000FD109E0826842F0800282600AE0826831
:1022900042F40042826005E0826842F400028260FB
:1022A00000E000BF00BF704710B500F5D87303EB26
:1022B00001131B6803F004031372137A53B900F57A
:1022C000D87303EB01131B6840F2FF7404EA535305
:1022D000136009E000F5D87303EB01131B686FF07E
:1022E000604404EAD303536000F5D87303EB011391
:1022F0001B6803F00203537200F5D87303EB01135C
:102300005B6803F00F03937200F5D87303EB0113BE
:102310005B681B0AD37400F5D87303EB01139B6849
:10232000D37200F5D87303EB01139B681C0A147376
:1023300000F5D87303EB01139B681C0C547300F574
:10234000D87303EB01139B681B0E937300F5D873CE
:1023500003EB0113DB68D37300F5D87303EB0113B0
:10236000DB681C0A147400F5D87303EB0113DB68F7
:102370001C0C547400F5D87303EB0113DB681B0EBF
:10238000937421B9C36843F02003C36003E0036979
:1023900043F02003036110BD21B9C26842F020025E
:1023A000C26003E0026942F0200202617047024607
:1023B000002019B9D36803F0030006E0012903D116
:1023C000136903F0030000E00020704710B50246D7
:1023D0000B4600204FF6FF71BBB9146824F00204CD
:1023E00044F00104146000E0491E546804F0030442
:1023F000012C01D00029F7D1546804F00304012C0A
:1024000001D0002032E0012030E0012B13D114680C
:1024100024F00304146000E0491E546804F003042F
:102420000CB10029F8D1546804F003040CB1002069
:102430001CE001201AE0022B17D1146824F00104DB
:1024400044F00204146000E0491E546804F00304E0
:10245000022C01D00029F7D1546804F00304022CA7
:1024600001D0002002E0012000E0002010BD014664
:1024700000200A6822F0010242F002020A604A6863
:1024800002F00302022A00D10120704701464FF6F4
:10249000FF7200200B6823F002030B6000E0521E65
:1024A0004B6803F00203022B01D1002AF7D14B68DD
:1024B00003F00203022B00D00120704701460020E8
:1024C0008A6902F070007047014600208A69100E88
:1024D0007047014600208A69C2F30740704710B573
:1024E0000246002001F4700343B19369C1F3130461
:1024F00023400BB1012039E0002037E001F0807368
:10250000A3B15368C1F3130423406BB101202DE044
:1025100000660040030000040003000800000310F0
:10252000000100080001FFF700201FE001F0006338
:1025300043B19368C1F3130423400BB1012015E0AC
:10254000002013E001F0007343B1D368C1F313041A
:1025500023400BB1012009E0002007E01369C1F31B
:10256000130423400BB1012000E0002010BD002225
:10257000804B994202D10023836111E0C1F3130221
:1025800001F000730BB1C2600AE001F080630BB18F
:10259000026105E001F000630BB1826000E042607F
:1025A00070470246002002EA01030BB1012000E05F
:1025B0000020704770B504460D460026606928402B
:1025C000002871D0B5F5807F5CD010DC082D35D0A7
:1025D00006DC012D20D0022D24D0042D72D127E05D
:1025E000102D31D0202D35D0402D6BD138E0B5F5F0
:1025F000004F60D009DCB5F5007F49D0B5F5806F9C
:102600004CD0B5F5006F5DD14FE0B5F5803F2DD0D2
:10261000B5F5003F56D12FE0A0685749FFF7C1FF3D
:10262000064651E0E0680321FFF7BBFF06464BE09A
:10263000E0680821FFF7B5FF064645E0E068102195
:10264000FFF7AFFF06463FE020690321FFF7A9FF30
:10265000064639E020690821FFF7A3FF064633E06C
:1026600020691021FFF79DFF06462DE060680821D4
:10267000FFF797FF064627E060681021FFF791FFFC
:10268000064621E0A0690121FFF78BFF06461BE00B
:10269000A0690221FFF785FF064615E0A069042125
:1026A000FFF77FFF06460FE00FE0A0697021FFF7FC
:1026B00078FF064608E060680421FFF772FF0646CF
:1026C00002E0FFE7002600BF00E00026304670BDB4
:1026D000B1F5007F3AD00FDC202928D006DC012993
:1026E0001CD004291DD0082940D11DE0402921D04B
:1026F000B1F5807F3AD126E0B1F5004F31D006DC4C
:10270000B1F5806F25D0B1F5006F2FD124E0B1F580
:10271000803F12D0B1F5003F28D111E0164A826007
:1027200025E00822C26022E01022C2601FE00822D9
:1027300002611CE01022026119E00822426016E0EA
:102740001022426013E00422426010E00422426042
:102750000DE0042242600AE000228261042242600D
:1027600005E0002282610422426000E000BF00BF59
:10277000704700007000F0300101010001684FF661
:10278000FE72114001600021016041608160C16002
:102790008D49884208D18C490839496841F00F01B8
:1027A000894A083A51608AE087491431884208D141
:1027B00085490839496841F0F001834A083A516077
:1027C0007DE081492831884208D17F49083949682C
:1027D00041F470617C4A083A516070E07A493C31BA
:1027E000884208D178490839496841F47041764AED
:1027F000083A516063E074495031884208D1724907
:102800000839496841F470216F4A083A516056E02E
:102810006D496431884208D16B490839496841F4EF
:102820007001694A083A516049E067497831884245
:1028300008D165490839496841F07061624A083A2F
:1028400051603CE06149884206D1011F096841F0AE
:102850000F01021F116032E05C491431884208D137
:102860005A49091F096841F0F001584A121F1160C6
:1028700025E056492831884208D15449091F096882
:1028800041F47061514A121F116018E04F493C3108
:10289000884208D14D49091F096841F470414B4AEB
:1028A000121F11600BE049495031884207D1474956
:1028B000091F096841F47021444A121F11607047D2
:1028C00010B50022026847F6F0739A430C6A8B68D1
:1028D00023430C6923434C6923438C692343CC690C
:1028E00023434C6A23438C6A23431A430260CB6818
:1028F00043600B6883604B68C36010BD00210160BA
:1029000041608160C160016141618161C1610162B9
:1029100041628162704721B1026842F001020260A7
:1029200004E002684FF6FE731A40026070471AB165
:1029300003680B43036002E003688B430360704746
:10294000416070470146486880B2704701460020E8
:10295000002201F080531BB11C4B083B1A6802E0B7
:10296000194B083B1A6802EA01030BB1012000E091
:102970000020704700F0805119B11449091F086008
:1029800002E01149083948607047014600200022E2
:1029900001F080531BB10D4B083B1A6802E00A4B53
:1029A000083B1A6802EA01030BB1012000E0002095
:1029B000704700F0805119B10449091F086002E016
:1029C0000149083948607047080002400804024085
:1029D000002044490860091D0860091D0860091DA0
:1029E000086041483F4914310860704700213D4963
:1029F0008279002A3AD00A46126803689A430B4645
:102A00001A600A1D126803689A430B1D1A60027946
:102A100011440A6803681A430A60324A083212688D
:102A200003689A432F4B08331A601A1D1268036813
:102A30009A432C4B0C331A604279102A0ED11A1F7C
:102A4000126803681A43274B08331A601A1D12686C
:102A500003681A43234B0C331A600DE02149427975
:102A600011440A6803681A430A6005E002791144B8
:102A70000A6803689A430A60704700210160017187
:102A80000C2141710021817170471649103109688C
:102A90000143144A10321160704701460020114A68
:102AA000143212680A400AB1012000E00020704789
:102AB0000C49143108607047014600200022094B80
:102AC0001B6803EA0102074B14331B680B4013B168
:102AD0000AB1012000E0002070470249143108606B
:102AE0007047000000040140FFFF0F0001617047C4
:102AF0002DE9F04102460025002600200023002495
:102B0000002791F803C00CF00F0591F803C00CF0FA
:102B1000100CBCF1000F03D091F802C04CEA05057F
:102B200091F800C0BCF1000F31D0146800202BE0F8
:102B30004FF0010C0CFA00F3B1F800C00CEA0306E8
:102B40009E4220D183004FF00F0C0CFA03F7BC43D8
:102B500005FA03FC4CEA040491F803C0BCF1280F09
:102B600006D14FF0010C0CFA00FCC2F814C00AE0C8
:102B700091F803C0BCF1480F05D14FF0010C0CFADD
:102B800000FCC2F810C0401C0828D1D31460B1F872
:102B900000C0BCF1FF0F34DD546800202EE000F1CE
:102BA000080C4FF0010808FA0CF3B1F800C00CEA69
:102BB00003069E4221D183004FF00F0C0CFA03F75D
:102BC000BC4305FA03FC4CEA040491F803C0BCF1D1
:102BD000280F05D100F1080C08FA0CF8C2F814808F
:102BE00091F803C0BCF1480F07D100F1080C4FF079
:102BF000010808FA0CF8C2F81080401C0828CED34F
:102C00005460BDE8F0812DE9F84305460F461446AF
:102C10009846F848854201D104261CE0F6488542D2
:102C200001D1082617E0F548854201D1102612E0AF
:102C3000F348854201D120260DE0F248854201D1BA
:102C4000402608E0F048854201D1802603E0EF48A5
:102C5000854200D186150121304600F0C5FBADF854
:102C600000708DF80340142C05D0102C03D01C2CC0
:102C700001D0182C01D18DF8028069462846FFF753
:102C800037FF142C05D0102C03D01C2C01D0182C8D
:102C900003D139462846FFF729FFBDE8F883C2680B
:102CA0004A40C260704730B500228B071C0F0F23CB
:102CB00003FA04F2D64B8C1053F824309343D44CCF
:102CC0008D1044F8253023468C1053F824308C079F
:102CD000240F00FA04F42343CD4C8D1044F8253022
:102CE00030BD2DE9FF4706460C469146C148864255
:102CF00003D104274FF0000828E0BF48864203D1E3
:102D000008274FF0010821E0BC48864203D1102774
:102D10004FF002081AE0BA48864203D120274FF04C
:102D2000030813E0B748864203D140274FF0040858
:102D30000CE0B548864203D180274FF0050805E036
:102D4000B248864202D187154FF0060847F00100CD
:102D5000012100F049FB012C06D106208DF800006E
:102D600000250120019094E0022C06D107208DF867
:102D700000000125022001908BE0042C06D10820E0
:102D80008DF8000002250420019082E0082C06D175
:102D900009208DF8000003250820019079E0102C0F
:102DA00006D10A208DF8000004251020019070E063
:102DB000202C06D117208DF8000005252020019039
:102DC00067E0402C06D117208DF800000625402032
:102DD00001905EE0802C06D117208DF800000725B9
:102DE0008020019055E0B4F5807F06D117208DF842
:102DF00000000825680101904BE0B4F5007F07D181
:102E000017208DF8000009254FF40070019040E074
:102E1000B4F5806F07D128208DF800000A254FF403
:102E20008060019035E0B4F5006F07D128208DF85F
:102E300000000B254FF4006001902AE0B4F5805F9C
:102E400007D128208DF800000C254FF48050019008
:102E50001FE0B4F5005F07D128208DF800000D2594
:102E60004FF40050019014E0B4F5804F07D12820B2
:102E70008DF800000E254FF48040019009E0B4F574
:102E8000004F06D128208DF800000F254FF4004098
:102E900001904FF4C060FEF795F900208DF8010015
:102EA0008DF8020001208DF803006846FEF78FF9C7
:102EB000ADF80C4048208DF80F0003A94D48FFF7EE
:102EC00017FE29464046FFF7EEFEB9F1000F03D189
:102ED00008208DF809000CE0B9F1010F03D10C2096
:102EE0008DF8090005E0B9F1020F02D110208DF82C
:102EF000090000208DF8080001208DF80A0001A8C3
:102F0000FFF774FDBDE8FF8710B5044639488442D9
:102F100008D10121042000F081FA0021042000F0F2
:102F20007DFA46E03448844208D10121082000F0AF
:102F300075FA0021082000F071FA3AE02F48844227
:102F400008D10121102000F069FA0021102000F0C2
:102F500065FA2EE02A48844208D10121202000F0A1
:102F60005DFA0021202000F059FA22E02548844231
:102F700008D10121402000F051FA0021402000F04A
:102F80004DFA16E02048844208D10121802000F04B
:102F900045FA0021802000F041FA0AE01B488442F3
:102FA00007D10121801500F039FA0021A01500F0A9
:102FB00035FA10BD10B50121084600F02FFA0021A6
:102FC000012000F02BFA10BD4FF6FF7101800221A5
:102FD00081700421C17070470246002093680B4045
:102FE0000BB1012000E0002070470146886880B2E4
:102FF0007047000000080140000C01400010014033
:103000000014014000180140001C01400020014054
:103010000800014002460020D3680B400BB101209C
:1030200000E0002070470146C86880B270474161E7
:1030300070470AB1016100E041617047C1607047AB
:103040004FF480320A4382618161826182698269C0
:103050007047024600202B4B18684FF680731840CB
:1030600040EA02100843274B186070472649C861A0
:103070007047F0B50A46002300240021002500F027
:103080000046B6F1004F02D11E4EF16901E01D4E1F
:103090007168C0F3034583B200F44016B6F5401FD3
:1030A00008D121F07061174E766826F07066154FD2
:1030B0007E6012E000F48016B6F5801F06D103266C
:1030C00006FA05F4A14341F0706106E0460D3601B1
:1030D00003FA06F6B14341F0706122B1460D3601A4
:1030E00003FA06F6314300F00046B6F1004F02D174
:1030F000044EF16101E0034E7160F0BD0249DC3124
:10310000086070470000014000002042DF4800686E
:1031100040F00100DD49086008464068DC4908408D
:10312000DA49486008460068DA490840D74908602B
:103130000846006820F4802008600846406820F4B3
:10314000FE0048604FF41F0088607047CF4909684F
:1031500021F48031CD4A11601146096821F48021A3
:103160001160B0F5803F03D0B0F5802F0ED106E09E
:10317000C649096841F48031C44A116007E0C34977
:10318000096841F4A021C14A116000E000BF00BFFE
:10319000704710B501460022002300204A11012A81
:1031A00002D1BA4C236806E0022A02D1B74C236A46
:1031B00001E0B64C636A01F01F02012494401C40F8
:1031C0000CB1012000E0002010BD38B500200090B7
:1031D0000024002500BF3120FFF7DBFF05460098E3
:1031E000401C00900098B0F5A06F01D0002DF2D0E7
:1031F0003120FFF7CEFF08B1012400E00024204673
:1032000038BD01460020A14A106820F0F80040EACD
:10321000C10010607047A049086070470246002056
:103220009A4B586820F47C1042EA01031843974BEC
:103230005860704798490866704701460020934AD5
:10324000506820F003000843506070478F48406882
:1032500000F00C007047014600208C4A506820F0B6
:10326000F00008435060704701460020874A5068CC
:1032700020F4E06008435060704701460020834A14
:10328000506820F4605040EAC1005060704729B196
:103290007E4A527A02437D4B5A7204E07B4A527A4C
:1032A00082437A4B5A7270477B49D8310860704725
:1032B00001460020754A506820F4404008435060A1
:1032C00070470021714A20321170704A82F8201034
:1032D000012802D004280AD104E001216B4A2032DF
:1032E000117005E00521694A2032117000E000BF2D
:1032F00000BF70476949086070476449096A014323
:10330000624A11627047654944390860704730B5B8
:1033100000210022002400235C4D6D6805F00C01A3
:1033200021B1042905D0082923D105E05C4D0560B1
:1033300022E05B4D05601FE0544D6D6805F470128E
:10334000524D6D6805F48034022505EB92421CB99C
:10335000544D554305600BE04C4D6D6805F4003548
:103360001DB1504D5543056002E04D4D554305607C
:1033700002E04B4D056000BF00BF444D6D6805F095
:10338000F0010909484D6B5C0568DD4045603F4D23
:103390006D6805F4E061090A434D6B5C4568DD40EA
:1033A00085603A4D6D6805F46051C90A3E4D6B5C0D
:1033B0004568DD40C560354D6D6805F44041890BB9
:1033C0003A4D6B5CC568B5FBF3F5056130BD29B1BD
:1033D0002E4A526902432D4B5A6104E02B4A52692E
:1033E00082432A4B5A61704729B1284A92690243A5
:1033F000264B9A6104E0254A92698243234B9A61E5
:10340000704729B1214AD2690243204BDA6104E0B6
:103410001E4AD26982431D4BDA61704729B11B4AAB
:10342000D2680243194BDA6004E0184AD26882433A
:10343000164BDA60704729B1144A12690243134BE4
:103440001A6104E0114A12698243104B1A617047F5
:1034500012494039086070470F49C86470470B49EA
:10346000C87170470948406A40F080700749486257
:10347000704701460020054A92680A400AB10120BF
:1034800000E0002070470149887270470010024038
:103490000000FFF8FFFFF6FE0000424280044242B7
:1034A00000127A0000093D001400002024000020D2
:1034B00021B1028842F00102028004E002884FF646
:1034C000FE731A40028070471AB183890B438381CF
:1034D00002E083898B4383817047CA43028270472D
:1034E00000220288F84B98420ED0F84B98420BD03D
:1034F000B0F1804F08D0F64B984205D0F54B98427A
:1035000002D0F54B984204D14FF68F731A404B8886
:103510001A43F24B984207D0F14B984204D04FF631
:10352000FF431A40CB881A4302808B8883850B881F
:103530000385E54B98420BD0E44B984208D0E94B09
:10354000984205D0E84B984202D0E84B984201D10E
:103550000B7A03860123838270477FB504460D46AC
:10356000B4F1804F39D14FF4E060FDF72BFE1C2001
:103570008DF8000000208DF8010002208DF8020077
:1035800001208DF803006846FDF721FE0121084661
:10359000FFF737FF681E80B2ADF808004720ADF88E
:1035A00004000020ADF80A00ADF8060001A94FF0B4
:1035B0008040FFF795FF01218807FFF78EFF01226A
:1035C00011469007FFF780FF01218807FFF770FF82
:1035D00000210120FFF715FF2DE1BD48844238D1BD
:1035E0004FF4E060FDF7EEFD1D208DF80000002097
:1035F0008DF8010003208DF8020001208DF80300F2
:103600006846FDF7E4FD01210220FFF7FAFE681E7F
:1036100080B2ADF808004720ADF804000020ADF8F6
:103620000A00ADF8060001A92046FFF759FF012165
:103630002046FFF752FF012211462046FFF744FFC4
:1036400001212046FFF734FF00210220FFF7D9FEB9
:10365000F1E0A048844238D14FF4E060FDF7B2FDBC
:103660001E208DF8000000208DF8010003208DF849
:10367000020001208DF803006846FDF7A8FD012136
:103680000420FFF7BEFE681E80B2ADF80800472098
:10369000ADF804000020ADF80A00ADF8060001A95D
:1036A0002046FFF71DFF01212046FFF716FF0122EC
:1036B00011462046FFF708FF01212046FFF7F8FEDC
:1036C00000210420FFF79DFEB5E08348844238D1F5
:1036D0004FF4E060FDF776FD32208DF80000002009
:1036E0008DF8010003208DF8020001208DF8030001
:1036F0006846FDF76CFD01210820FFF782FE681E79
:1037000080B2ADF808004720ADF804000020ADF805
:103710000A00ADF8060001A92046FFF7E1FE0121ED
:103720002046FFF7DAFE012211462046FFF7CCFEC5
:1037300001212046FFF7BCFE00210820FFF761FEB3
:1037400079E06648844238D14FF4E060FDF73AFDF5
:1037500036208DF8000000208DF8010003208DF840
:10376000020001208DF803006846FDF730FD0121BD
:103770001020FFF746FE681E80B2ADF80800472013
:10378000ADF804000020ADF80A00ADF8060001A96C
:103790002046FFF7A5FE01212046FFF79EFE0122ED
:1037A00011462046FFF790FE01212046FFF780FEDC
:1037B00000211020FFF725FE3DE04948844238D122
:1037C0004FF4E060FDF7FEFC37208DF8000000208C
:1037D0008DF8010003208DF8020001208DF8030010
:1037E0006846FDF7F4FC01212020FFF70AFE681E61
:1037F00080B2ADF808004720ADF804000020ADF815
:103800000A00ADF8060001A92046FFF769FE012174
:103810002046FFF762FE012211462046FFF754FEC4
:1038200001212046FFF744FE00212020FFF7E9FD9B
:1038300001E000BFFEE77FBD10B50446B4F1804F44
:1038400004D101210846FFF7DCFD29E0204884422D
:1038500004D101210220FFF7D4FD21E01D4884425C
:1038600004D101210420FFF7CCFD19E01A4884425D
:1038700004D101210820FFF7C4FD11E0174884425C
:1038800004D101211020FFF7BCFD09E01448844257
:1038900004D101212020FFF7B4FD01E000BFFEE7C5
:1038A00010BD10B50446B4F1804F04D100210120B1
:1038B000FFF7A7FD3EE00648844219D1002102200F
:1038C000FFF79FFD36E00000002C0140003401406E
:1038D0000004004000080040000C004000100040C0
:1038E00000140040004001400044014000480140F5
:1038F000FE48844204D100210420FFF782FD19E034
:10390000FB48844204D100210820FFF77AFD11E032
:10391000F848844204D100211020FFF772FD09E02D
:10392000F548844204D100212020FFF76AFD01E020
:1039300000BFFEE710BD10B50446F048844208D130
:103940000121C014FFF76AFD0021E014FFF766FDB6
:10395000C4E0B4F1804F08D101210846FFF76BFDA8
:1039600000210120FFF767FDB8E0E548844208D157
:1039700001210220FFF75FFD00210220FFF75BFD20
:10398000ACE0DA48844208D101210420FFF753FD5E
:1039900000210420FFF74FFDA0E0D548844208D164
:1039A00001210820FFF747FD00210820FFF743FD14
:1039B00094E0D048844208D101211020FFF73BFD5C
:1039C00000211020FFF737FD88E0CB48844208D162
:1039D00001212020FFF72FFD00212020FFF72BFDE4
:1039E0007CE0C848844208D101214014FFF716FD4D
:1039F00000216014FFF712FD70E0C348844209D132
:103A00000121C804FFF70AFD00214FF40020FFF751
:103A100005FD63E0BD48844209D101210805FFF797
:103A2000FDFC00214FF48010FFF7F8FC56E0B84889
:103A3000844209D101214805FFF7F0FC00214FF431
:103A40000010FFF7EBFC49E0B248844208D10121A5
:103A50004020FFF7F0FC00214020FFF7ECFC3DE0A8
:103A6000AD48844208D101218020FFF7E4FC002109
:103A70008020FFF7E0FC31E0A848844208D1012112
:103A80008015FFF7D8FC0021A015FFF7D4FC25E036
:103A9000A348844209D101210804FFF7BFFC00219B
:103AA0004FF48030FFF7BAFC18E09E48844209D1F9
:103AB00001214804FFF7B2FC00214FF40030FFF76A
:103AC000ADFC0BE09848844208D101218804FFF73F
:103AD000A5FC00214FF48020FFF7A0FC10BD70B5BD
:103AE000002400220023058C4FF6FE763540058425
:103AF000028C8388048B4FF68F752C40B51E2C40AA
:103B00000D882C43751E2A400D892A434D882A436F
:103B10007A4DA8420BD07B4DA84208D0804DA842D8
:103B200005D0804DA84202D07F4DA84213D14FF658
:103B3000F7752A404D892A434FF6FB752A408D8838
:103B40002A434FF6FF652B404FF6FF552B408D89DA
:103B50002B43CD892B4383800483CD8885860284C3
:103B600070BD70B5002400220023058C4FF6EF765F
:103B700035400584028C8388048B48F6FF752C4001
:103B80004FF6FF452C400D884FF6FF7606EA0525D7
:103B90002C434FF6DF752A400D8906EA05152A43A6
:103BA0004D8806EA05152A43544DA84202D0554DCA
:103BB000A8421DD14FF67F752A404D894FF6FF76FA
:103BC00006EA05152A434FF6BF752A408D8806EA96
:103BD00005152A434FF6FF352B404FF2FF752B405A
:103BE0008D8906EA85052B43CD8906EA85052B4399
:103BF00083800483CD880587028470BD70B500245E
:103C000000220023058C4FF6FF6635400584028CA8
:103C10008388848B4FF68F752C404FF6FC752C40B3
:103C20000D882C434FF6FF552A400D894FF6FF763D
:103C300006EA05252A434D8806EA05252A432F4D25
:103C4000A84202D02F4DA8421DD14FF2FF752A4045
:103C50004D894FF6FF7606EA05252A434FF6FF35D4
:103C60002A408D8806EA05252A434EF6FF752B402B
:103C70004DF6FF752B408D8906EA05152B43CD893E
:103C800006EA05152B4383808483CD8885870284CB
:103C900070BD70B5002200230024058C4EF6FF761F
:103CA00035400584038C8488828B48F6FF752A4052
:103CB0004FF6FF452A400D884FF6FF7606EA0525A8
:103CC0002A434DF6FF752B400D8906EA05352B4337
:103CD0004D8806EA05352B43084DA84202D0094D10
:103CE000A84229D14BF6FF752C401FE00008004088
:103CF000000C00400010004000140040002C014067
:103D00000004004000340140004C014000500140DC
:103D10000054014000180040001C004000200040FA
:103D20000040014000440140004801408D894FF6A9
:103D3000FF7606EA85152C4384808283CD88A0F81F
:103D40004050038470BD828B4FF2FF331A40828350
:103D5000828B4FF6FF7303EA01231A438283704775
:103D6000F0B50C461546002200210026078C4EF6C1
:103D7000FF7C07EA0C070784828B018C4FF6FF77E4
:103D800007EA043640F6FF473A404FF6FF7707EA66
:103D900005273A434FF6FF7707EA03373A43F64FD2
:103DA000B8420ED0F54FB8420BD0B0F1804F08D0DA
:103DB000F34FB84205D0F34FB84202D0F24FB842A9
:103DC00006D14DF6FF77394046F48057394305E078
:103DD00047F6FF57394044F48057394382830184C2
:103DE000F0BD828B4FF6F3731A408283828B0A43B5
:103DF00082837047F0B50C4615460022002100264C
:103E0000078C4FF6FF6C07EA0C070784828B018C46
:103E10004FF6FF7707EA04264FF60C773A404FF645
:103E2000FF7707EA03172F433A43D34FB8420ED028
:103E3000D24FB8420BD0B0F1804F08D0D04FB8422B
:103E400005D0D04FB84202D0CF4FB84206D14FF67E
:103E5000FF57394046F48077394305E04FF2FF576A
:103E6000394044F48077394382830184F0BD028B6A
:103E70004FF2FF331A400283028B4FF6FF7303EABF
:103E800001231A4302837047F0B50C461546002201
:103E900000210026078C4FF6EF7C07EA0C07078409
:103EA000028B018C4FF6FF7707EA041640F6FF47B6
:103EB0003A404FF6FF7707EA03373A434FF6FF776A
:103EC00007EA05273A43AC4FB8420ED0AB4FB84291
:103ED0000BD0B0F1804F08D0A94FB84205D0A94F00
:103EE000B84202D0A84FB84206D14FF6DF7739402A
:103EF00046F01007394305E04FF65F77394044F04C
:103F00001007394302830184F0BD028B4FF6F3732F
:103F10001A400283028B0A4302837047F0B50C46B5
:103F2000154600220021068C4FF6FE773E4006849F
:103F3000028B018C4FF60C7632407E1C06EA03168B
:103F40002E4332438C4EB0420ED08C4EB0420BD03A
:103F5000B0F1804F08D08A4EB04205D0894EB042B1
:103F600002D0894EB04206D14FF6FD76314044F082
:103F70000106314305E04FF6F576314044F0010685
:103F8000314302830184F0BD70B505460C467A4882
:103F900085420ED0794885420BD0B5F1804F08D0CC
:103FA0007748854205D07748854202D076488542D9
:103FB00000D100E000BF208850B92389A288618821
:103FC0002846FFF7ABFFE1882846FFF79EFF25E074
:103FD000208804280AD12389A28861882846FFF70F
:103FE00053FFE1882846FFF742FF17E020880828A2
:103FF0000AD12389A28861882846FFF7FBFEE18861
:104000002846FFF7EEFE09E02389A288618828464A
:10401000FFF7A6FEE1882846FFF795FE70BD2DE963
:10402000F04105460C4600260127608808B90226A3
:1040300000E00026A088012801D1022700E0012726
:104040002088A0B92389A28861882846FFF766FFE7
:10405000E1882846FFF759FF23893A46314628462A
:10406000FFF712FFE1882846FFF701FF13E02389DD
:10407000A28861882846FFF707FFE1882846FFF7F6
:10408000F6FE23893A4631462846FFF747FFE18886
:104090002846FFF73AFFBDE8F0810A884B881A43AB
:1040A0008B881A43CB881A430B891A434B891A43CE
:1040B0008B891A43A0F8442070474FF6FF71818026
:1040C00000210180C1804180017270470021018080
:1040D00041808180C180018141818181C18170479E
:1040E000002101804180012181800021C180018166
:1040F00070470021018041808180C1800181418120
:104100008181704731B1B0F8442042F40042A0F8F8
:10411000442005E0B0F84420C2F30E02A0F8442089
:1041200070478182704741EA0203A0F84830704727
:104130001AB183890B43838102E083898B43838196
:10414000704701894FF6F8721140018170470A46A5
:10415000002101894FF68F73194011430181704787
:1041600030B504460D4629462046FFF7F0FF20896A
:1041700040F00700208130BD002C01400034014098
:104180000004004000080040000C00402DE9F04110
:1041900004460D4616461F46602D06D13B460122B9
:1041A00031462046FFF770FE05E03B4601223146CE
:1041B0002046FFF7B3FE29462046FFF7C8FF2089B7
:1041C00040F007002081BDE8F08130B50C460021A9
:1041D0000189C9B24FF6FF7505EA0325154325434A
:1041E0002943018130BD2DE9F04105460E461746B1
:1041F0009846002443463A4631462846FFF7E5FFF5
:104200002C894FF6F870044044F007044FF68F7085
:10421000044044F070042C81BDE8F081F0B5044600
:104220000D4616461F463B46324629462046FFF7B6
:10423000CCFF208940F480402081F0BD018582823E
:1042400070470A46002101884FF68F7319401143C9
:1042500001807047F0B50C4615461E46002100222D
:1042600000230189028B038C4FF6F87739402143F4
:104270004FF6FC473A4040F201173A434FF6DD77DC
:104280003B404FF6FF7707EA06172F433B43018178
:1042900002830384F0BD0A460021018B4FF68F7321
:1042A00019401143018370470A460021018B48F6EB
:1042B000FF7319404FF6FF7303EA0223194301838A
:1042C00070470A460021818B4FF68F7319401143C6
:1042D000818370470A460021818B48F6FF7319409D
:1042E0004FF6FF7303EA022319438183704721B11C
:1042F000028842F08002028004E002884FF67F7359
:104300001A400280704721B1828842F00402828004
:1043100004E082884FF6FB731A408280704721B117
:10432000828842F00802828004E082884FF6F773A8
:104330001A408280704721B1828842F00102828057
:1043400004E082884FF6FE731A40828070470A4666
:104350000021018B4FF6F773194011430183704719
:104360000A460021018B4FF2FF7319404FF6FF738D
:1043700003EA02231943018370470A460021818B17
:104380004FF6F77319401143818370470A460021A5
:10439000818B4FF2FF7319404FF6FF7303EA02233C
:1043A0001943818370470A460021018B4FF6FB7346
:1043B00019401143018370470A460021018B4FF6D3
:1043C000FF3319404FF6FF7303EA022319430183B9
:1043D00070470A460021818B4FF6FB731940114349
:1043E000818370470A460021818B4FF6FF331940C5
:1043F0004FF6FF7303EA02231943818370470A468D
:104400000021018B4FF67F731940114301837047E0
:104410000A460021018BC1F30E014FF6FF7303EA38
:1044200002231943018370470A460021818B4FF60E
:104430007F7319401143818370470A460021818BA5
:10444000C1F30E014FF6FF7303EA02231943818380
:1044500070470A460021018C4FF6FD731940114345
:10446000018470470A460021018C4FF6F77319400A
:104470001143018470470A460021018C4FF6DF7317
:1044800019404FF6FF7303EA021319430184704782
:104490000A460021018C4FF67F7319404FF6FF73D7
:1044A00003EA02131943018470470A460021018C74
:1044B0004FF6FF5319404FF6FF7303EA02231943E7
:1044C000018470470A460021018C4FF2FF731940A6
:1044D0004FF6FF7303EA02231943018470470A462B
:1044E0000021018C4DF6FF7319404FF6FF7303EA6C
:1044F000023319430184704730B5002301248C40F6
:10450000A3B2048C9C430484048C02FA01F5ADB27E
:104510002C43048430BD30B5002304248C40A3B266
:10452000048C9C430484048C02FA01F5ADB22C4344
:10453000048430BD70B503460020002418461830AE
:1045400001258D40ACB21D8CA5431D8409B10829FD
:1045500009D100EB6100056825F07005056005686C
:10456000154305600EE00D1FC5F34E052844056890
:1045700025F4E045056005684FF6FF7606EA022659
:104580003543056070BD21B1028842F0020202800D
:1045900004E002884FF6FD731A400280704721B193
:1045A000028842F00402028004E002884FF6FB73A6
:1045B0001A400280704721B1828842F080028280D6
:1045C00004E082884FF67F731A4082807047028829
:1045D0004FF6F7731A40028002880A430280704740
:1045E00082884FF68F731A40828082880A438280C5
:1045F000704702894FF6F8731A40028102890A4314
:104600000281704702894FF67F731A400281028946
:104610000A43028170478184704781857047818693
:1046200070470187704781877047A0F84010704736
:1046300002884FF6FF431A40028002880A43028034
:1046400070470146888E70470146088F70470146C3
:10465000888F70470146B1F8400070470146888C4A
:1046600070470146088D704702460020138A0B40B0
:104670000BB1012000E00020704730B50246002059
:1046800000230024158A05EA0103958905EA01043F
:1046900013B10CB1012000E0002030BDCA430282FA
:1046A0007047000010B50446FB48844209D101213F
:1046B0008803FEF7B3FE00214FF48040FEF7AEFE04
:1046C00032E0F648844209D101214804FEF7B3FEE6
:1046D00000214FF40030FEF7AEFE25E0F0488442A2
:1046E00009D101218804FEF7A6FE00214FF48020A5
:1046F000FEF7A1FE18E0EB48844209D10121C8046D
:10470000FEF799FE00214FF40020FEF794FE0BE027
:10471000E548844208D101210805FEF78CFE0021FE
:104720004FF48010FEF787FE10BD2DE9F04786B0EC
:1047300005460E460024A24600BFA1460027B089C8
:1047400000B100BF2F462C8A4CF6FF700440F08861
:1047500004432C82AC894EF6F3100440B0883189B2
:104760000843718908430443AC81AC8A4FF6FF408B
:104770000440B0890443AC8201A8FEF7C8FDC648D6
:10478000874202D1DDF810A001E0DDF80CA0A88975
:1047900000F4004040B10AEBCA0000EB0A10316897
:1047A0004900B0FBF1F807E00AEBCA0000EB0A1081
:1047B00031688900B0FBF1F86420B8FBF0F0040127
:1047C0002009642101FB1089A88900F4004040B150
:1047D000322000EBC900B0FBF1F000F00700044309
:1047E00008E0322000EB09106421B0FBF1F000F08A
:1047F0000F0004432C8106B0BDE8F0874FF416513A
:10480000016000218180C18001810C214181002152
:104810008181704710B502460020108A4FF2FF03D5
:1048200018400B884C8823438C882343CC8823432F
:104830001843108210BD0021018041808180C18019
:10484000704721B1828942F40052828104E082895A
:104850004DF6FF731A4082817047F0B5034600247D
:1048600000260025002040F66A17B94200D100BF9B
:104870001846C1F3421401F01F06012707FA06F596
:10488000012C01D10C3004E0022C01D1103000E0E9
:1048900014301AB107682F43076002E00768AF437E
:1048A0000760F0BD1AB1838A0B43838202E0838ADA
:1048B0008B4383827047028A4FF6F0731A4002825C
:1048C000028A0A430282704782894FF2FF731A40BC
:1048D000828182890A438281704721B1828942F0B4
:1048E0000202828104E082894FF6FD731A408281C0
:1048F0007047028A4FF6DF731A400282028A0A4327
:104900000282704721B1028A42F48042028204E0AE
:10491000028A4BF6FF731A4002827047C1F3080205
:104920008280704701468888C0F3080070478189FB
:1049300041F0010181817047028BD2B20283028B68
:1049400042EA012202837047028B02F47F42028313
:10495000028B0A430283704721B1828A42F020020F
:10496000828204E0828A4FF6DF731A4082827047A7
:1049700021B1828A42F01002828204E0828A4FF6DC
:10498000EF731A408282704721B1828A42F0080296
:10499000828204E0828A4FF6F7731A40828270475F
:1049A00021B1828942F40042828103E08289C2F30C
:1049B0000E028281704721B1828A42F400628282B3
:1049C00004E0828A4FF2FF731A4082827047828A23
:1049D0004FF6FB731A408282828A0A4382827047B2
:1049E00021B1828A42F00202828204E0828A4FF67A
:1049F000FD731A408282704702460020B1F5007FA5
:104A000000D100BF13880B400BB1012000E0002053
:104A1000704701F40072B2F5007F00D100BFCA43B5
:104A20000280704770B50246002400230025002054
:104A300040F66A16B14200D100BFC1F3421501F041
:104A40001F03012606FA03F3012D02D19689334094
:104A500006E0022D02D1168A334001E0968A3340E7
:104A60000C12012606FA04F41688344013B10CB176
:104A7000012000E0002070BD10B50022002340F6A8
:104A80006A14A14200D100BF0A1201249440A3B2CB
:104A9000DC43048010BD00000038014000440040A9
:104AA00000480040004C00400050004000BF01F0B2
:104AB00013F8012310222021FE48FEF7A4F8012359
:104AC00010224021FB48FEF79EF80123102291019D
:104AD000F948FEF798F801231022D101F648FEF7B5
:104AE00092F80121F54801F01AFA01224FF4E13160
:104AF000F34801F068FA01224FF4E131F14801F086
:104B000062FA00224FF4E131EF4801F05CFAEFA1C4
:104B1000EB4801F08FFC0021084602F0B0F94FF499
:104B20007A71C806FEF719FD4FF08040FEF784FE4B
:104B3000EBA1E34801F07EFCEF494988EE4A928AF6
:104B4000891A08B203F0FDF803F06EFA4FF48061A1
:104B5000D948FEF76CFA4FF40061D748FDF7C6FF5D
:104B6000FAE2E648007800287ED0E54801F08AFDA8
:104B70000020E2490870E048B0F82D00422809D131
:104B80004FF48061CC48FEF752FA4FF40061CA48F6
:104B9000FEF74DFAD848B0F82D00422809D04FF45E
:104BA0008061C548FEF743FA4FF40061C248FDF743
:104BB0009DFFD148008901287DD0CF4890F826007C
:104BC0000028F9D0CF480078002874D1CA48B0F93D
:104BD0003300CD49B1F90010081A38D1C648B0F9F0
:104BE0002700CA49B1F90010081A30D1C248B0F9FB
:104BF0002900C749B1F90010081A28D1052003F08F
:104C00006BFA0546C01705EB1050001340F239311E
:104C1000484340F67611C1EB80003C2190FBF1F057
:104C2000022814DA052003F057FA0446C01704EBF3
:104C30001050001340F23931484340F67611C1EB71
:104C400080003C2190FBF1F010F1020F0ADC012101
:104C5000B048FEF72DFC0121AF48FEF729FC0020EB
:104C6000AE490860052000E08AE103F035FA054608
:104C7000C01705EB1050001340F23931484340F69D
:104C80007611C1EB80003C2190FBF1F0022816DA8E
:104C9000052003F021FA0446C01704EB105000135E
:104CA00040F23931484340F67611C1EB80003C2197
:104CB00090FBF1F000E05FE110F1020F07DC36201D
:104CC0008D49A1F82700A1F82900A1F833008A48EE
:104CD000B0F8270081B28F48FFF7A1FC8648B0F8F2
:104CE000290081B28C48FFF79AFC8348B0F8330062
:104CF00081B28948FFF795FC7F48B0F827008349C7
:104D000008807D48B0F82900814908807A48B0F8C9
:104D100033007D49088081480068B0F57A7F0BD365
:104D200000217C48FEF7C4FB00217B48FEF7C0FB56
:104D30004FF47A70794908600020794908606E481C
:104D40004089012848D16C49B1F900106A4AB2F98A
:104D50001220881A03F0D7FC0746724A724B03F000
:104D600039FD054603F034FA04466349B1F90210EF
:104D7000614AB2F91420881A03F0C5FC0746694A53
:104D8000694B03F027FD054603F022FA81462146D0
:104D900002F075F865A14A4801F04CFB5648B0F99D
:104DA0000200554AB2F91420811A454801F0BDFAB3
:104DB0000921434801F07CFA60A1414801F03AFB27
:104DC00003F074F9044621463D4801F0AEFA09218A
:104DD0003B4801F06DFACFE047484089032839D1BC
:104DE0004549B1F90010444AB2F91220881A03F07B
:104DF0008AFC07464B4A534B03F0ECFC054603F094
:104E0000E7F904463C49B1F902103B4AB2F91420D3
:104E1000881A03F078FC0746424A4A4B03F0DAFC52
:104E2000054603F0D5F98146214602F028F83FA156
:104E3000234801F0FFFA3048B0F902002E4AB2F9D7
:104E40001420811A1E4801F070FA09211C4801F053
:104E50002FFA91E028484089022879D12649B1F9F2
:104E60000010254AB2F91220881A03F04CFC0746BC
:104E7000354A364B03F0AEFC054603F0A9F904466B
:104E80001D49B1F902101C4AB2F91420881A03F026
:104E90003AFC07462C4A2D4B03F09CFC054603F0D8
:104EA00097F98146214601F0EAFF20A1044801F06C
:104EB000C1FA4EE00018014000140140A086010034
:104EC0000044004000480040004C00404D69636BC6
:104ED000583420524F5320436172200A00000000D2
:104EE000496E6974205375636365737366756C20CE
:104EF0002E2E2E2E0A000000AA0300202E000020D5
:104F00001C0100203200002054000020500000202E
:104F10005200002000040040000800404C00002027
:104F2000380000209E0C8E9257E7583F5949414B5C
:104F30004F4E4751495345543A2020004144433A8B
:104F40002020000057E7683FA167B3EA73B5753FBB
:104F50000EE0FE48B0F90200FC4AB2F91420811AB2
:104F6000FB4801F0E2F90921F94801F0A1F903E059
:104F70000021084601F083FF2021F648FDF78FFE4F
:104F8000F548007800284FD0F44890F82100002818
:104F90004AD02021EF48FDF782FEEC480089012825
:104FA00038D1EA4890F8260098B30021084601F06D
:104FB00019FF0020EA490860E8480078F1280DD17F
:104FC000E649886803F0D0FF0446E449486803F0E6
:104FD000CBFF0546214601F005FF1FE0DF480078C2
:104FE000F22805D1DD4AD169906901F048FF15E04A
:104FF000DA480078F32805D1D84AD169906901F0E0
:105000003EFF0BE0D5480078E12807D102F0DDFC37
:1050100004E0FFE70021084601F0E4FE0020CF494C
:1050200081F82100CC490870C848B0F82B0001284D
:1050300005D10020CB490870CB49087009E0C3486E
:10504000B0F82B00012804D00120C6490870C649D9
:105050000870C648007801283FD1C248007801286E
:105060003BD1C348006803F04EFB0746C14AC24B20
:1050700003F0B0FB054603F0ABF88146BF4800687B
:1050800003F041FB0746BB4ABB4B03F0A3FB0546BD
:1050900003F09EF80446494601F0F1FE0020B349B2
:1050A0000870AF490860B6A1BA4801F0C3F9B34827
:1050B0000168B84801F039F90921B64801F0F8F85B
:1050C000B5A1B44801F0B6F9A9480168B14801F0AA
:1050D0002CF90921AF4801F0EBF8A1480068B0F5C0
:1050E0007A7F1ED9994890F8260038B9052097494B
:1050F00008810021084601F075FE0FE0974890F8FE
:10510000210020B90021084601F06CFE06E0A74806
:10511000007818B90021084601F064FE002090498B
:105120000860A3480078B8B10020A1490870A148E0
:105130000068142809D140218648FDF7B0FD002001
:105140009C49086002F0ECFA06E09A4800681428CE
:1051500002D900209749086003E500BF011EA0F1B5
:105160000100FBD170472DE9F04F9BB001250024D1
:1051700000BF002008906F1C05F1020805F103092B
:1051800005F1040A05F1050BA81D0790E81D06901E
:1051900005F10800059005F10900049005F10A00E9
:1051A000039005F10B00029005F10C0001906421C1
:1051B000039848430390029848430290019848435B
:1051C0000190AE222146641C09A84254EA222146DD
:1051D000641C425401222146641C42541022214680
:1051E000641C425474480068020E2146641C09A8DD
:1051F000425471480068C0F307422146641C09A864
:1052000042546D480088C0F307222146641C09A857
:105210004254694802782046611CCCB209A90A545C
:105220003A0A2046611CCCB209A90A542046611CE6
:10523000CCB209A90F544FEA18222046611CCCB207
:1052400009A90A542046611CCCB209A901F80080C2
:105250004FEA19222046611CCCB209A90A54204603
:10526000611CCCB209A901F800904FEA1A2220462D
:10527000611CCCB209A90A542046611CCCB209A910
:1052800001F800A04FEA1B222046611CCCB209A9FC
:105290000A542046611CCCB209A901F800B0079855
:1052A000020A2046611CCCB209A90A542146621C9C
:1052B000D4B209AA079850540698020A2046611CE5
:1052C000CCB209A90A542146621CD4B209AA069894
:1052D00050540598020A2046611CCCB209A90A5410
:1052E0002146621CD4B209AA059850540498020AB7
:1052F0002046611CCCB209A90A542146621CD4B2D2
:1053000009AA049850540398020A2046611CCCB2A2
:1053100009A90A540398C2B22046611CCCB209A95B
:105320000A540298020A2046611CCCB209A90A5408
:105330000298C2B22046611CCCB209A90A54019855
:10534000020A2046611CCCB209A937E0AA0300205A
:1053500000440040001801402F0000208806002073
:1053600038000020320000203300002065000020BB
:105370006C0000207B14AE47E17A843F6800002077
:105380005553415254335265635F73706565647859
:105390003A20200000480040555341525433526592
:1053A000635F7370656564773A202000FD0000201C
:1053B0003100002040000020580000200A540198CD
:1053C000C2B22046611CCCB209A90A54601EC0B208
:1053D0008DF82600022606E009A8815D0898084499
:1053E0000890701CC6B2A642F6DB0898C2B22046EE
:1053F000611CCCB209A90A54EF222046611CCCB230
:1054000009A90A54FE222046611CCCB209A90A54FB
:1054100022464D4801F022F84C480068401C4B4998
:1054200008601BB0BDE8F08F2DE9F04198B04FF057
:1054300001080024002500271821684602F064FEB8
:10544000002606E008F1020080B22DF81600701C5C
:10545000C6B20C2EF6DBAE222046611CCCB206A9E9
:105460000A54EA222046611CCCB206A90A54012241
:105470002046611CCCB206A90A5411222046611CA8
:10548000CCB206A90A5432480068020E2046611CBC
:10549000CCB206A90A542E480068C0F30742204641
:1054A000611CCCB206A90A5429480088C0F307221F
:1054B0002046611CCCB206A90A5425480278204631
:1054C000611CCCB206A90A54002510E03DF8150075
:1054D00002122046611CCCB206A90A541DF8152000
:1054E0002046611CCCB206A90A54681CC5B20C2D1A
:1054F000ECDB601EC0B28DF81A00022504E006A89D
:10550000405D0744681CC5B2A542F8DB2046611C1B
:10551000CCB206A90F54EF222046611CCCB206A9DA
:105520000A54FE222046611CCCB206A90A54224627
:10553000054800F093FF06480068401C04490860D5
:1055400018B0BDE8F0810000004400405800002081
:105550005C000020704700BFFEE700BFFEE700BF11
:10556000FEE700BFFEE770477047704710B50121A6
:105570008807FFF782F818B3F9480068401CF8491B
:105580000860F8480068401CF6490860F648006862
:10559000401CF5490860F5480068401CF349086064
:1055A000F3480068401CF2490860F2480068401C5B
:1055B000F049086001F0B8FC01218807FFF76EF898
:1055C00010BD0EB5EC4A07CA8DE807000121EB4873
:1055D000FFF753F818B10121E848FFF75FF80EBD57
:1055E00070B5002540F22551E548FFF71BFA60B180
:1055F000E348001D0088C4B2E24801780078401CEE
:10560000E04A1070E048445414E040F22441DC4881
:10561000FFF708FA70B1DA480088C5B2D848001D13
:105620000088C5B2D7480078401ED74908700120CD
:10563000D44908700120D54908704021D448FDF7AD
:105640002EFB70BD70B5002540F22551D148FFF703
:10565000E9F9B8B1CF48001D0088C4B2CE4801783E
:105660000078401CCC4A1070CC48445440F225517C
:10567000C848FFF701FAC94800783E2802D0002048
:10568000C5490870C44800780E2874D1C348007812
:1056900018B90020C049087070BDC04800783E2885
:1056A00003D00020BC490870F6E7BC484078A22827
:1056B00003D00020B8490870EEE7B8488078012888
:1056C00007D0B6488078FE2803D00020B249087081
:1056D000E2E7B248C079B14989790844AF49097A0B
:1056E0000844AE4949790844AC49097B0844AB49B0
:1056F000C97A0844A949897A0844A849497A0844DA
:10570000C0B2A649497B884203D00020A249087054
:10571000C2E70120A2490870A048007A01069F480C
:10572000C07941EA00419D48807941EA00209B49C7
:10573000497908439B4908609848007B01069748CF
:10574000C07A41EA00419548807A41EA00209349B5
:10575000497A08439449086000208F4908708F48AF
:10576000C078052808D15A219048FEF758FF5A21E1
:105770008248FEF754FF14E08848C078062808D114
:1057800012218A48FEF74BFF12217C48FEF747FFA3
:1057900007E036218548FEF742FF36217748FEF7BD
:1057A0003EFF00BF78E710B540F225518048FFF773
:1057B00039F900283ED07E48FFF7B4F8C1B27D48E1
:1057C00002780078401C7B4B18707B48815400782D
:1057D000552803D000201946087010BD7548007880
:1057E000022800DAF9E774484078512803D00020F5
:1057F00070490870F1E76F4800782C2800DAECE770
:105800006D484078512812D16B48007B52280ED148
:105810006948C07D53280AD1674890F8220054286F
:1058200005D12C2264495B4800F018FE02E00020FC
:105830006049087000205F49087000BFCDE75F48ED
:10584000006820B15D480068401E5C4908607047F0
:1058500010B50120FDF730F910B10120FDF73DF939
:1058600010BD06E041F2883100BF0A1EA1F101011E
:10587000FBD1021EA0F10100F4D1704710B54FF426
:10588000FA70FFF7EEFF80214D48FDF7A5FB0128D8
:1058900026D136213948FEF7C2FE36214348FEF7AD
:1058A000BEFE36213548FEF7BCFE40213848FDF7E4
:1058B000F6F901213148FDF7FBFD01213B48FDF7D9
:1058C000F7FD00202B4908604FF47A70FFF7C9FFFD
:1058D00000212A48FDF7ECFD00213448FDF7E8FDE2
:1058E0008020FDF7FAF810BD704710B54FF4003076
:1058F000FDF72CF8012809D14004FDF73BF8012001
:105900002249087080212F48FDF7C9F910BD00B564
:1059100085B06A4600212C48FCF7C6FC684601F0B9
:10592000ACFC4FF480712748FDF7B9F901202749F5
:10593000087005B000BD26490A780978491C244B37
:105940001970244988540978552903D000211A4632
:10595000117070471E4909780B293DDAF9E70000FC
:10596000380000203C0000204000002044000020BF
:10597000480000204C000020249300080004004050
:1059800000380140700000201C0100202E00002083
:10599000001801400048004071000020360100203E
:1059A00065000020680000206C0000200008004016
:1059B00000440040720000209C01002028000020CC
:1059C000000C0140001C0140006400403100002038
:1059D00073000020960200203B494978512904D0E9
:1059E00052291ED0532954D137E037498978364A95
:1059F000D27841EA022109B2344A11803249097948
:105A0000314A527941EA022109B2304A51802E4985
:105A100089792D4AD27941EA022109B22B4A918033
:105A200037E029498978284AD27841EA022109B227
:105A3000264AD18024490979234A527941EA022130
:105A400009B2224A1181204989791F4AD27941EA53
:105A5000022109B21D4A51811BE01B4989781A4A6B
:105A6000D27841EA022109B2184A9182164909798D
:105A7000154A527941EA022109B2144A5182124967
:105A80008979114AD27941EA022109B20F4AD182B9
:105A900000BF00BF00210E4A1170117000BF58E70F
:105AA00010B540F225510B48FEF7BCFF58B140F24B
:105AB00025510848FEF7E0FF06488088C4B220461A
:105AC000FFF739FF00BF10BD96020020040100203F
:105AD000730000200050004030B54FF43471B1F134
