:020000040800F2
:10000000200C0020CD010008FD4A0008FF4A00082E
:10001000034B0008074B00080B4B000800000000D2
:100020000000000000000000000000000F4B00086E
:10003000114B000800000000134B00085550000849
:10004000E7010008E7010008E7010008E7010008F0
:10005000E7010008E701000867500008E701000811
:10006000E7010008E7010008E7010008E7010008D0
:10007000E7010008E7010008E7010008CB5000088D
:10008000E7010008E7010008E7010008E7010008B0
:10009000EF500008E7010008E7010008935000084E
:1000A000E7010008E7010008E7010008E701000890
:1000B000154B00086B4B0008E7010008E70100083A
:1000C000E7010008E7010008E7010008E701000870
:1000D000E7010008894B0008FB4D0008ED4B0008C4
:1000E000E7010008E7010008E7010008E701000850
:1000F000E7010008E7010008E7010008E701000840
:10010000E7010008C9500008E7010008E7010008FE
:10011000E701000807520008E7010008E7010008AE
:10012000E7010008E7010008E7010008E70100080F
:1001300000F002F800F03AF80AA090E8000C8244BF
:100140008344AAF10107DA4501D100F02FF8AFF29C
:10015000090EBAE80F0013F0010F18BFFB1A43F0A5
:100160000103184790880000B0880000103A24BFAF
:1001700078C878C1FAD8520724BF30C830C144BF0C
:1001800004680C607047000000230024002500264E
:10019000103A28BF78C1FBD8520728BF30C148BFEA
:1001A0000B6070471FB51FBD10B510BD07F03CFBBD
:1001B0001146FFF7F7FF03F0B7FF07F05AFB03B450
:1001C000FFF7F2FF03BC07F05DFB00000948804722
:1001D00009480047FEE7FEE7FEE7FEE7FEE7FEE729
:1001E000FEE7FEE7FEE7FEE704480549054A064B41
:1001F00070470000EB0200083101000820060020D3
:10020000200C002020080020200800200CB5002031
:10021000019000906C48006840F480306A490860A2
:1002200000BF6948006800F4003000900198401C4D
:100230000190009818B90198B0F5A06FF1D162480B
:10024000006800F4003010B10120009001E00020AF
:1002500000900098012843D15C48006840F01000ED
:100260005A4908600846006820F003000860084604
:10027000006840F0020008605348406852494860F6
:100280000846406848600846406840F4806048601E
:100290000846406820F47C1048600846406840F4F6
:1002A000E81048600846006840F08070086000BFB1
:1002B0004548006800F000700028F9D042484068C6
:1002C00020F00300404948600846406840F00200C2
:1002D000486000BF3C48406800F00C000828F9D195
:1002E0000CBD10B5FFF792FF10BD10B53648006881
:1002F00040F001003449086008464068344908402D
:100300003149486008460068324908402E49086073
:100310000846006820F4802008600846406820F401
:10032000FE0048604FF41F008860FFF7DAFF4FF0CF
:1003300000602949086010BD10B50021002000228E
:10034000214B5B6803F00C0121B1042906D0082978
:1003500028D107E0214B224C236027E01F4B204C83
:10036000236023E0184B5B6803F47010164B5B6846
:1003700003F48032022303EB904022B9194B43432C
:10038000174C23600DE0104B5B6803F4003323B17E
:10039000144B4343124C236003E0104B4343104C77
:1003A000236003E00D4B0E4C236000BF00BF064BE3
:1003B0005B68C3F303130C4CE15C094B1B68CB4037
:1003C000074C236010BD00000010024000200240D6
:1003D0000000FFF8FFFFF6FE08ED00E000127A00D3
:1003E0000000002000093D00040000202DE9F04F2E
:1003F00091B005460C4691461E46002D7ED1012146
:10040000022002F03CFB40F2CF20ADF8340040F275
:10041000CF70ADF830000020ADF83600ADF83200F6
:100420000CA9FE4802F09AFB7020ADF820000CBB2E
:100430000121042002F016FB4020ADF83C001820FA
:100440008DF83F0003208DF83E000FA9F44801F01D
:100450008DFE0120ADF82200ADF826600220ADF837
:10046000280008A9ED4802F078FE0821EB4803F0C7
:10047000ACFAD2E0012C42D10121042002F0F2FAC0
:100480008020ADF83C0018208DF83F0003208DF847
:100490003E000FA9E24801F069FE0120ADF82200FC
:1004A000304607F0A9FCCDE90201484607F0A4FC5C
:1004B00082460022DB4B07F0D3FACDE90001DDE9EB
:1004C000022307F0E9FC0022D74BCDE9040107F035
:1004D00013FA07460022D54B07F0C2FACDE9060110
:1004E00007F046FC80B2ADF8260008A9CB4802F020
:1004F00076FE0821C94803F071FA8EE092E0022CE2
:1005000041D10121082002F0ADFA0120ADF83C00F4
:1005100018208DF83F0003208DF83E000FA9C44835
:1005200001F024FE0120ADF82200304607F064FC03
:10053000CDE90401484607F05FFC0022B94BCDE944
:10054000000107F08DFACDE90201DDE9042307F08F
:10055000A3FC07460022B44B07F0CEF982460022E6
:10056000B24B07F07DFACDE9060107F001FC80B23D
:10057000ADF8260008A9A94802F07EFE0821A74888
:1005800003F039FA49E0032C45D10121082002F09B
:1005900069FA0220ADF83C0018208DF83F000320D6
:1005A0008DF83E000FA9A24801F0E0FD0120ADF852
:1005B0002200304607F020FCCDE90001484607F054
:1005C0001BFC82460022974B07F04AFA0746DDE9FA
:1005D000002307F061FC0022934BCDE9020107F0F4
:1005E0008BF90022914BCDE9040107F039FACDE9EE
:1005F000060107F0BDFB80B2ADF8260008A98748C8
:1006000002F085FE0821854803F0FEF901218348A8
:1006100003F0ABF901E000BFFEE701217F4802F0E3
:1006200085FA63E2012D7CD10121042002F027FA32
:1006300040F2CF20ADF8340040F2CF70ADF830007A
:100640000020ADF83600ADF832000CA9794802F070
:1006500085FA7020ADF820000CBB0121082002F0C3
:1006600001FA4020ADF83C0018208DF83F0003202F
:100670008DF83E000FA96E4801F078FD0120ADF81D
:100680002200ADF826600220ADF8280008A96948CC
:1006900002F063FD0821674803F097F9E4E0012CBC
:1006A00043D10121082002F0DDF98020ADF83C00A3
:1006B00018208DF83F0003208DF83E000FA95C48FC
:1006C00001F054FD0120ADF82200304607F094FB04
:1006D000CDE90201484607F08FFB0022514BCDE9DE
:1006E000000107F0BDF98246DDE9022307F0D4FBE3
:1006F000074600224C4B07F0FFF800224B4BCDE998
:10070000040107F0ADF9CDE9060107F031FB80B235
:10071000ADF8260008A9474802F061FD08214548C8
:1007200000E0A6E003F05AF99EE0022C41D101213D
:10073000082002F097F9E001ADF83C0018208DF890
:100740003F0003208DF83E000FA9394801F00EFD4F
:100750000120ADF82200304607F04EFBCDE9000144
:10076000484607F049FB824600222E4B07F078F9F5
:100770000746DDE9002307F08FFB00222A4BCDE975
:10078000020107F0B9F80022284BCDE9040107F077
:1007900067F9CDE9060107F0EBFA80B2ADF8260063
:1007A00008A9244802F068FD0821224803F023F933
:1007B0005AE0032C56D10121082002F053F94FF4DE
:1007C0000070ADF83C0018208DF83F0003208DF834
:1007D0003E000FA9164801F0C9FC0120ADF8220027
:1007E000304607F009FBCDE90201484607F004FB5B
:1007F00000220C4BCDE9000107F032F90746DDE994
:10080000022307F049FB82460022074B07F074F8E9
:100810000022064BCDE904010EE000000004004078
:1008200000080140000059400000E03F0000244063
:10083000000C01400008004007F012F9CDE9060164
:1008400007F096FA80B2ADF8260008A9FD4802F03C
:100850005EFD0821FB4803F0D7F80121F94803F0B9
:1008600084F801E000BFFEE70121F64802F05EF9DE
:100870003CE1022D7DD10121084602F000F9A9F1E9
:10088000010080B2ADF834004720ADF83000002000
:10089000ADF83600ADF832000CA9680702F05EF939
:1008A0006020ADF82000ECBB0121042002F0DAF852
:1008B0000120ADF83C0018208DF83F0003208DF892
:1008C0003E000FA9E04801F051FC0120ADF82200E4
:1008D000304607F091FA07468846484607F08CFAFA
:1008E0000022DA4BCDE9000107F0BAF83A46434658
:1008F000CDE9020107F0D0FA82460022D44B06F07F
:10090000FBFF0022D34BCDE9040107F0A9F8CDE9A4
:10091000060107F02DFA80B2ADF826000020ADF8F0
:10092000280000E008E008A9680702F016FC08218A
:10093000C80603F04AF8D2E0012C44D1012104207A
:1009400002F090F80220ADF83C0018208DF83F002E
:1009500003208DF83E000FA9BB4801F007FC0120E1
:10096000ADF82200304607F047FA82468B464846EB
:1009700000E0B9E007F040FA0022B44BCDE90001F5
:1009800007F06EF8074652465B4607F085FA0022EC
:10099000AF4BCDE9020106F0AFFF0022AD4BCDE930
:1009A000040107F05DF8CDE9060107F0E1F980B236
:1009B000ADF8260008A9A00702F011FC0821C8061E
:1009C00003F00CF88BE0022C41D10121042002F04D
:1009D00049F80420ADF83C0018208DF83F000320B2
:1009E0008DF83E000FA9984801F0C0FB0120ADF83A
:1009F0002200304607F000FACDE90001484607F032
:100A0000FBF907460022914B07F02AF88246DDE900
:100A1000002307F041FA00228D4BCDE9020106F0D8
:100A20006BFF00228B4BCDE9040107F019F8CDE9EB
:100A3000060107F09DF980B2ADF8260008A960070D
:100A400002F01AFC0821C80602F0D5FF47E0032C8B
:100A500043D10121042002F005F80820ADF83C0044
:100A600018208DF83F0003208DF83E000FA976482E
:100A700001F07CFB0120ADF82200304607F0BCF904
:100A800082468B46484607F0B7F900226F4BCDE906
:100A9000000106F0E5FF074652465B4607F0FCF909
:100AA00000226B4BCDE9020106F026FF0022694BC4
:100AB000CDE9040106F0D4FFCDE9060107F058F9AD
:100AC00080B2ADF8260008A94FF0804002F01FFC6C
:100AD0000821C80602F098FF01E000BFFEE70121EF
:100AE000880702F023F801E000BFFEE711B0BDE87F
:100AF000F08F2DE9F04F8DB005460C46164699460D
:100B0000002D7DD16020ADF8200084BB0120ADF820
:100B10002200484607F070F9CDE90401304607F09D
:100B20006BF90022494BCDE9000106F099FFCDE9B0
:100B30000201DDE9042307F0AFF90022444BCDE9BF
:100B4000060106F0D9FE82460022424B06F088FFDD
:100B5000074607F00DF980B2ADF8260008A93E4817
:100B600002F0FBFA08213C4802F02FFF5AE2FFE7AF
:100B7000012C30D10120ADF82200484607F03CF9A5
:100B8000CDE90201304607F037F9074600222F4B26
:100B900006F066FFCDE90001DDE9022307F07CF9EC
:100BA00000222B4BCDE9040106F0A6FE824600226E
:100BB000284B06F055FFCDE9060107F0D9F880B2C1
:100BC000ADF8260008A9244802F009FB08212248B4
:100BD00002F004FF26E2022C40D10120ADF82200F1
:100BE000484607F009F907468846304607F004F9F9
:100BF0000022164BCDE9000106F032FF3A4600E034
:100C000061E04346CDE9020107F046F90022104BAE
:100C1000CDE9040106F070FE00220E4BCDE906017D
:100C200006F01EFF824607F0A3F880B2ADF826005A
:100C300008A9094802F020FB0821074802F0DBFE62
:100C4000F0E10000000800400008014000005940A9
:100C50000000E03F0000244000040040032C30D19D
:100C60000120ADF82200484607F0C6F8CDE90201A0
:100C7000304607F0C1F80022FE4BCDE9000106F036
:100C8000EFFE8246DDE9022307F006F9074600225F
:100C9000F94B06F031FE0022F84BCDE9040106F0D5
:100CA000DFFECDE9060107F063F880B2ADF826005B
:100CB00008A9F34802F02BFB0821F14802F0A4FE3A
:100CC000B0E100BFFEE7012D7DD16020ADF820002E
:100CD00084BB0120ADF82200484607F08DF8CDE92D
:100CE0000001304607F088F807460022E14B06F085
:100CF000B7FE8246DDE9002307F0CEF80022DE4B86
:100D0000CDE9020106F0F8FD0022DC4BCDE904013B
:100D100006F0A6FECDE9060107F02AF880B2ADF88C
:100D2000260008A9D74802F018FA0821D54802F091
:100D30004CFE77E1FFE7012C30D10120ADF8220015
:100D4000484607F059F8CDE90001304607F054F85D
:100D500007460022C74B06F083FE8246DDE90023EA
:100D600007F09AF80022C44BCDE9020106F0C4FD59
:100D70000022C24BCDE9040106F072FECDE9060166
:100D800006F0F6FF80B2ADF8260008A9BD4802F0D3
:100D900026FA0821BB4802F021FE43E1022C32D1A1
:100DA0000120ADF82200484607F026F8CDE90201FF
:100DB000304607F021F807460022AE4B06F050FE01
:100DC000CDE9000100E054E0DDE9022307F064F81A
:100DD0000022A94BCDE9040106F08EFD0022A74BAD
:100DE000CDE9060106F03CFE824606F0C1FF80B266
:100DF000ADF8260008A9A34802F03EFA0821A14850
:100E000002F0F9FD0EE1032C31D10120ADF82200F2
:100E1000484606F0F1FF07468846304606F0ECFFEC
:100E200082460022934B06F01BFE3A464346CDE92C
:100E3000000107F031F800228F4BCDE9020106F0E6
:100E40005BFD00228D4BCDE9040106F009FECDE9E2
:100E5000060106F08DFF80B2ADF8260008A989488A
:100E600002F055FA0821874802F0CEFDDAE000BF13
:100E7000FEE7022D7ED16020ADF8200084BB01206A
:100E8000ADF82200484606F0B7FFCDE90201304632
:100E900006F0B2FF07460022764B06F0E1FDCDE9F1
:100EA0000001DDE9022306F0F7FF82460022724BC3
:100EB00006F022FD0022714BCDE9040106F0D0FDC1
:100EC000CDE9060106F054FF80B2ADF8260008A96E
:100ED000680702F042F90821C80602F076FDA1E099
:100EE000FFE7012C30D10120ADF82200484606F082
:100EF00083FFCDE90201304606F07EFF074600225F
:100F00005C4B06F0ADFDCDE90001DDE9022306F002
:100F1000C3FF82460022584B06F0EEFC0022574BDE
:100F2000CDE9040106F09CFDCDE9060106F020FFA5
:100F300080B2ADF8260008A9A00702F050F90821F8
:100F4000C80602F04BFD6DE0022C33D10120ADF854
:100F50002200484606F050FF82468B46304606F097
:100F60004BFF0022434BCDE9000106F079FD074617
:100F7000524600E054E05B4606F08EFF00223E4BF6
:100F8000CDE9020106F0B8FC00223C4BCDE904019A
:100F900006F066FDCDE9060106F0EAFE80B2ADF886
:100FA000260008A9600702F067F90821C80602F0C8
:100FB00022FD37E0032C31D10120ADF82200484654
:100FC00006F01AFFCDE90201304606F015FF0022B7
:100FD000284BCDE9000106F043FD0746DDE9022379
:100FE00006F05AFF82460022234B06F085FC0022C1
:100FF000224BCDE9040106F033FDCDE9060106F0F0
:10100000B7FE80B2ADF8260008A94FF0804002F08C
:101010007EF90821C80602F0F7FC03E000BFFEE7F6
:1010200000BFFEE70DB0BDE8F08F1FB50121042021
:1010300001F025FD0121402001F014FD0120ADF853
:101040000C0004208DF80F0003A90F4801F08EF862
:101050000020ADF800004FF6FF70ADF8040000204E
:10106000ADF80600ADF802006946064801F076FDCD
:1010700000230BE0000059400000E03F0000244046
:101080000004004000080040001801401A461946BC
:101090004A4802F001FC0021484802F0FAFD012113
:1010A000464801F043FD1FBD00B589B00121042071
:1010B00001F0E5FC0121082001F0D4FC4FF4707030
:1010C000ADF8140048208DF8170005A93C4801F040
:1010D0004DF84FF6FF70ADF80C004720ADF8080052
:1010E0000020ADF80E00ADF80A0002A9334801F067
:1010F00035FD0020ADF81800ADF81A000120ADF85C
:101100001C000020ADF81E00ADF8200006A92B48F9
:1011100002F078FA0420ADF818000020ADF81A00AB
:101120000120ADF81C000020ADF81E00ADF8200035
:1011300006A9224802F066FA0820ADF8180000203F
:10114000ADF81A000120ADF81C000020ADF81E001B
:10115000ADF8200006A9194802F054FA0C20ADF8A9
:1011600018000020ADF81A000120ADF81C00002086
:10117000ADF81E00ADF8200006A9104802F042FAB2
:101180001E208DF8040000208DF805008DF8060063
:1011900001208DF8070001A800F019F81F21074869
:1011A00002F0BAFD01221E21044801F0CBFC01210E
:1011B000024801F0BBFC09B000BD0000000800407F
:1011C000000C014031490143314A1160704770B54C
:1011D000002100230F22C47804B32D4C246804F4AA
:1011E000E064C4F5E064210AC1F10403CA40447814
:1011F00004FA03F18478144021430901254C067850
:10120000A155047804F01F050124AC4005786D1148
:10121000AD0005F1E025C5F8004109E0047804F0CF
:101220001F050124AC401C4D0678761145F8264078
:1012300070BD1A4A0A400243154B1B1F1A607047C3
:1012400039B1134A121D12680243114B1B1D1A605B
:1012500006E00F4A121D126882430D4B1B1D1A60D7
:101260007047042808D14FF0E021096941F00401DA
:101270004FF0E022116107E04FF0E021096921F011
:1012800004014FF0E0221161704700000000FA05F0
:101290000CED00E000E400E080E100E080FFFF1FD3
:1012A0001AB143690B43436102E043698B434361D5
:1012B000704710B50021837A012202FA03F1FB4A3C
:1012C000126842F00102F94B1A60F84A1C321268A7
:1012D0008A43F64B1C331A60027BCAB9F34A0C32BC
:1012E00012688A43F14B0C331A604288C38842EA81
:1012F0000343EE4A4032847A42F8343002888388CD
:1013000042EA0343E94A4032847A02EBC402536062
:10131000027B012A19D1E54A0C3212680A43E34BD9
:101320000C331A604288038842EA0343DF4A4032A2
:10133000847A42F83430C288838842EA0343DB4A25
:101340004032847A02EBC4025360C27A3AB9D74A77
:10135000121D12688A43D54B1B1D1A6006E0D34A42
:10136000121D12680A43D14B1B1D1A60028932B943
:10137000CE4A143212688A43CC4B14331A60028965
:10138000012A06D1C94A143212680A43C74B1433E2
:101390001A60427B012A06D1C44A1C3212680A43F1
:1013A000C24B1C331A60C14A126822F00102BF4BC3
:1013B0001A6010BD30B5024600200023146824F0E6
:1013C00002041460146844F00104146000E05B1C23
:1013D000546804F001041CB94FF6FF74A342F6D11F
:1013E000546804F001040CB900206CE08C79012CE5
:1013F00004D1146844F08004146003E0146824F0FD
:1014000080041460CC79012C04D1146844F04004A9
:10141000146003E0146824F0400414600C7A012C7A
:1014200004D1146844F02004146003E0146824F02C
:10143000200414604C7A012C04D1146844F0100488
:10144000146003E0146824F0100414608C7A012CFA
:1014500004D1146844F00804146003E0146824F014
:1014600008041460CC7A012C04D1146844F00404FC
:10147000146003E0146824F0040414608C78A4075A
:10148000CD7844EA05640D7944EA05444D7944EA8F
:1014900005540D886D1E2C43D461146824F001049A
:1014A0001460002300E05B1C546804F001041CB1CC
:1014B0004FF6FF74A342F6D1546804F001040CB156
:1014C000002000E0012030BD00218171C171017256
:1014D00041728172C1728170C17003210171022158
:1014E000417101210180704710B504467048844263
:1014F00009D10121480601F0DCFA00214FF000700B
:1015000001F0D7FA08E00121880601F0D2FA0021A3
:101510004FF0806001F0CDFA10BD10B58AB00446DE
:101520000121092001F09EFA0121480601F0A7FAE5
:1015300001214FF4EA1001F0DAF84FF48070ADF8B1
:10154000240048208DF8270003208DF8260009A9E3
:10155000584800F00BFE4FF40070ADF8240018203E
:101560008DF8270003208DF8260009A9514800F0C6
:10157000FDFD4FF4E060FFF725FE14208DF82000FC
:1015800000208DF8210004208DF8220001208DF824
:10159000230008A8FFF71BFE4548FFF7A5FF05A895
:1015A000FFF792FF00208DF81A0001208DF81B0034
:1015B0008DF81C0000208DF81D008DF81E008DF8A0
:1015C0001F008DF8160001208DF8170005208DF8FA
:1015D000180002208DF819000420ADF8140005A9A8
:1015E0003348FFF7E7FE00208DF80E008DF80F005E
:1015F00001208DF81000C4F34F30ADF80400042032
:1016000000EBC40080B2ADF806004FF6FF70ADF8F5
:101610000800ADF80A000020ADF80C0001208DF89C
:10162000110001A8FFF745FE012202212048FFF723
:1016300037FE0AB010BD10B502460020936803F0D3
:101640008063B3F1806F00D110E0936803F0006312
:10165000B3F1006F01D1012008E0936803F08053DB
:10166000B3F1805F01D1022000E0042004287AD089
:1016700002F5C07303EB00131B6803F0010402F5CD
:10168000C07303EB00131C600B7AABB94B7A0C8868
:1016900043EA445302F5C07404EB00142468234366
:1016A00002F5C07404EB0014236016E000660040ED
:1016B00000640040000C01400B7A4C6843EAC4030C
:1016C0004C7A234302F5C07404EB001424682343CE
:1016D00002F5C07404EB001423608B7A03F00F034F
:1016E0008B7202F5C07303EB00135B6823F00F04E9
:1016F00002F5C07303EB00135C6002F5C07303EBEB
:1017000000135B688C7A234302F5C07404EB001469
:1017100063608B7B1C064B7B44EA03440B7B44EAEF
:101720000323CC7A234302F5C07404EB0014A360B6
:101730008B7C1C064B7C44EA03440B7C44EA032369
:10174000CC7B234302F5C07404EB0014E36002F584
:10175000C07303EB00131B6843F0010402F5C07370
:1017600003EB00131C6010BD2DE9F04185B08046ED
:101770000F4614461D460026019704208DF80800E8
:1017800000208DF809008DF80A5000BF06E021788E
:101790000DF10B008155641C701CC6B2AE42F6DB25
:1017A00069464046FFF747FF05B0BDE8F081F749BD
:1017B000096841F00101F54A11601146096843F6D4
:1017C0000E729143F14A11601146096841EA002105
:1017D00011601146096821F001011160704721B1C3
:1017E000026842F48032026003E0026822F4803230
:1017F00002607047E1B1026842F0800202604FF47B
:10180000C272125842F480734FF4C27213504FF4F4
:10181000CA72125842F480734FF4CA7213504FF4D4
:10182000D272125842F480734FF4D27213501BE0FC
:10183000026822F0800202604FF4C272125822F451
:1018400080734FF4C27213504FF4CA72125822F4CC
:1018500080734FF4CA7213504FF4D272125822F4AC
:1018600080734FF4D2721350704710B502460023B4
:1018700021B1012907D002290FD109E09068C44C99
:1018800000EA04030BE09068C24C00EA040306E09F
:101890009068C14C00EA040301E0002300BF00BFD0
:1018A000BE4C181BA34216D007DC83B16FF08060DA
:1018B000184470B1022818D111E0B0F5007F10D0A3
:1018C000B74C204448B1B0F5003F0ED10BE00223E5
:1018D0000DE000230BE0002309E0002307E00123D3
:1018E00005E0012303E0012301E0002300BF00BF66
:1018F000D8B210BD21B1012907D002290FD109E0CA
:10190000826842F0800282600AE0826842F400420B
:10191000826005E0826842F40002826000E000BF5D
:1019200000BF704710B500F5D87303EB01131B68B7
:1019300003F004031372137A53B900F5D87303EB61
:1019400001131B6840F2FF7404EA5353136009E06B
:1019500000F5D87303EB01131B686FF0604404EAD1
:10196000D303536000F5D87303EB01131B6803F036
:101970000203537200F5D87303EB01135B6803F0A5
:101980000F03937200F5D87303EB01135B681B0A16
:10199000D37400F5D87303EB01139B68D37200F581
:1019A000D87303EB01139B681C0A147300F5D873FA
:1019B00003EB01139B681C0C547300F5D87303EB05
:1019C00001139B681B0E937300F5D87303EB01138F
:1019D000DB68D37300F5D87303EB0113DB681C0AD3
:1019E000147400F5D87303EB0113DB681C0C5474FA
:1019F00000F5D87303EB0113DB681B0E937421B958
:101A0000C36843F02003C36003E0036943F020038D
:101A1000036110BD21B9C26842F02002C26003E038
:101A2000026942F02002026170470246002019B9A3
:101A3000D36803F0030006E0012903D1136903F022
:101A4000030000E00020704710B502460B4600205E
:101A50004FF6FF71BBB9146824F0020444F001048E
:101A6000146000E0491E546804F00304012C01D006
:101A70000029F7D1546804F00304012C01D00020A0
:101A800032E0012030E0012B13D1146824F003046C
:101A9000146000E0491E546804F003040CB10029EE
:101AA000F8D1546804F003040CB100201CE00120BC
:101AB0001AE0022B17D1146824F0010444F0020448
:101AC000146000E0491E546804F00304022C01D0A5
:101AD0000029F7D1546804F00304022C01D000203F
:101AE00002E0012000E0002010BD014600200A684D
:101AF00022F0010242F002020A604A6802F0030288
:101B0000022A00D10120704701464FF6FF720020E3
:101B10000B6823F002030B6000E0521E4B6803F0D9
:101B20000203022B01D1002AF7D14B6803F0020314
:101B3000022B00D001207047014600208A6902F084
:101B400070007047014600208A69100E70470146F8
:101B500000208A69C2F30740704710B50246002092
:101B600001F4700343B19369C1F3130423400BB133
:101B7000012039E0002037E001F08073A3B1536801
:101B8000C1F3130423406BB101202DE00066004037
:101B90000300000400030008000003100001000817
:101BA0000001FFF700201FE001F0006343B19368DC
:101BB000C1F3130423400BB1012015E0002013E012
:101BC00001F0007343B1D368C1F3130423400BB198
:101BD000012009E0002007E01369C1F3130423404A
:101BE0000BB1012000E0002010BD0022804B994283
:101BF00002D10023836111E0C1F3130201F00073ED
:101C00000BB1C2600AE001F080630BB1026105E034
:101C100001F000630BB1826000E042607047024651
:101C2000002002EA01030BB1012000E00020704710
:101C300070B504460D46002660692840002871D022
:101C4000B5F5807F5CD010DC082D35D006DC012D89
:101C500020D0022D24D0042D72D127E0102D31D0B8
:101C6000202D35D0402D6BD138E0B5F5004F60D038
:101C700009DCB5F5007F49D0B5F5806F4CD0B5F5DE
:101C8000006F5DD14FE0B5F5803F2DD0B5F5003F39
:101C900056D12FE0A0685749FFF7C1FF064651E033
:101CA000E0680321FFF7BBFF06464BE0E068082130
:101CB000FFF7B5FF064645E0E0681021FFF7AFFFEC
:101CC00006463FE020690321FFF7A9FF064639E0F9
:101CD00020690821FFF7A3FF064633E020691021A1
:101CE000FFF79DFF06462DE060680821FFF797FF8C
:101CF000064627E060681021FFF791FF064621E0C5
:101D0000A0690121FFF78BFF06461BE0A0690221B5
:101D1000FFF785FF064615E0A0690421FFF77FFF66
:101D200006460FE00FE0A0697021FFF778FF064636
:101D300008E060680421FFF772FF064602E0FFE753
:101D4000002600BF00E00026304670BDB1F5007FE0
:101D50003AD00FDC202928D006DC01291CD0042928
:101D60001DD0082940D11DE0402921D0B1F5807F48
:101D70003AD126E0B1F5004F31D006DCB1F5806FE5
:101D800025D0B1F5006F2FD124E0B1F5803F12D0FE
:101D9000B1F5003F28D111E0164A826025E0082203
:101DA000C26022E01022C2601FE0082202611CE033
:101DB0001022026119E00822426016E010224260FF
:101DC00013E00422426010E0042242600DE004228D
:101DD00042600AE0002282610422426005E00022A3
:101DE00082610422426000E000BF00BF7047000033
:101DF0007000F0300101010001684FF6FE721140E1
:101E000001600021016041608160C1608D498842AC
:101E100008D18C490839496841F00F01894A083ACC
:101E200051608AE087491431884208D185490839D0
:101E3000496841F0F001834A083A51607DE08149E8
:101E40002831884208D17F490839496841F47061D6
:101E50007C4A083A516070E07A493C31884208D1A6
:101E600078490839496841F47041764A083A516026
:101E700063E074495031884208D172490839496891
:101E800041F470216F4A083A516056E06D4964315F
:101E9000884208D16B490839496841F47001694AA0
:101EA000083A516049E067497831884208D165496C
:101EB0000839496841F07061624A083A51603CE073
:101EC0006149884206D1011F096841F00F01021FD4
:101ED000116032E05C491431884208D15A49091F27
:101EE000096841F0F001584A121F116025E0564977
:101EF0002831884208D15449091F096841F47061AA
:101F0000514A121F116018E04F493C31884208D1F4
:101F10004D49091F096841F470414B4A121F116075
:101F20000BE049495031884207D14749091F0968E8
:101F300041F47021444A121F1160704710B500220D
:101F4000026847F6F0739A430C6A8B6823430C6966
:101F500023434C6923438C692343CC6923434C6A54
:101F600023438C6A23431A430260CB6843600B68A7
:101F700083604B68C36010BD0021016041608160D7
:101F8000C160016141618161C1610162416281623F
:101F9000704721B1026842F00102026004E0026869
:101FA0004FF6FE731A40026070471AB103680B4384
:101FB000036002E003688B43036070474160704731
:101FC0000146486880B2704701460020002201F0B7
:101FD00080531BB11C4B083B1A6802E0194B083BAD
:101FE0001A6802EA01030BB1012000E000207047EB
:101FF00000F0805119B11449091F086002E011492D
:1020000008394860704701460020002201F08053E3
:102010001BB10D4B083B1A6802E00A4B083B1A68DB
:1020200002EA01030BB1012000E00020704700F03C
:10203000805119B10449091F086002E001490839BB
:1020400048607047080002400804024000204449EC
:102050000860091D0860091D0860091D08604148E5
:102060003F4914310860704700213D498279002AB8
:102070003AD00A46126803689A430B461A600A1D52
:10208000126803689A430B1D1A60027911440A68AA
:1020900003681A430A60324A0832126803689A4396
:1020A0002F4B08331A601A1D126803689A432C4B91
:1020B0000C331A604279102A0ED11A1F1268036875
:1020C0001A43274B08331A601A1D126803681A4313
:1020D000234B0C331A600DE02149427911440A6800
:1020E00003681A430A6005E0027911440A6803682C
:1020F0009A430A6070470021016001710C2141710F
:102100000021817170471649103109680143144A52
:1021100010321160704701460020114A14321268D3
:102120000A400AB1012000E0002070470C49143138
:1021300008607047014600200022094B1B6803EA33
:102140000102074B14331B680B4013B10AB1012085
:1021500000E0002070470249143108607047000019
:1021600000040140FFFF0F00016170472DE9F041BD
:10217000024600250026002000230024002791F8B5
:1021800003C00CF00F0591F803C00CF0100CBCF16B
:10219000000F03D091F802C04CEA050591F800C089
:1021A000BCF1000F31D0146800202BE04FF0010C7F
:1021B0000CFA00F3B1F800C00CEA03069E4220D1ED
:1021C00083004FF00F0C0CFA03F7BC4305FA03FC35
:1021D0004CEA040491F803C0BCF1280F06D14FF07B
:1021E000010C0CFA00FCC2F814C00AE091F803C01C
:1021F000BCF1480F05D14FF0010C0CFA00FCC2F8FD
:1022000010C0401C0828D1D31460B1F800C0BCF144
:10221000FF0F34DD546800202EE000F1080C4FF071
:10222000010808FA0CF3B1F800C00CEA03069E425C
:1022300021D183004FF00F0C0CFA03F7BC4305FAD1
:1022400003FC4CEA040491F803C0BCF1280F05D14B
:1022500000F1080C08FA0CF8C2F8148091F803C0D9
:10226000BCF1480F07D100F1080C4FF0010808FA43
:102270000CF8C2F81080401C0828CED35460BDE88A
:10228000F0812DE9F84305460F4614469846F84874
:10229000854201D104261CE0F648854201D108267A
:1022A00017E0F548854201D1102612E0F348854237
:1022B00001D120260DE0F248854201D1402608E0F8
:1022C000F048854201D1802603E0EF48854200D1E5
:1022D00086150121304600F0C5FBADF800708DF881
:1022E0000340142C05D0102C03D01C2C01D0182C2A
:1022F00001D18DF8028069462846FFF737FF142C7C
:1023000005D0102C03D01C2C01D0182C03D1394639
:102310002846FFF729FFBDE8F883C2684A40C2603B
:10232000704730B500228B071C0F0F2303FA04F20D
:10233000D64B8C1053F824309343D44C8D1044F872
:10234000253023468C1053F824308C07240F00FAD4
:1023500004F42343CD4C8D1044F8253030BD2DE9D5
:10236000FF4706460C469146C148864203D10427E2
:102370004FF0000828E0BF48864203D108274FF0FD
:10238000010821E0BC48864203D110274FF0020823
:102390001AE0BA48864203D120274FF0030813E021
:1023A000B748864203D140274FF004080CE0B548F7
:1023B000864203D180274FF0050805E0B2488642E7
:1023C00002D187154FF0060847F00100012100F007
:1023D00049FB012C06D106208DF8000000250120C4
:1023E000019094E0022C06D107208DF80000012511
:1023F000022001908BE0042C06D108208DF800000B
:1024000002250420019082E0082C06D109208DF8D5
:10241000000003250820019079E0102C06D10A2045
:102420008DF8000004251020019070E0202C06D1CA
:1024300017208DF8000005252020019067E0402C32
:1024400006D117208DF800000625402001905EE09F
:10245000802C06D117208DF80000072580200190E0
:1024600055E0B4F5807F06D117208DF800000825CF
:10247000680101904BE0B4F5007F07D117208DF87B
:10248000000009254FF40070019040E0B4F5806F22
:1024900007D128208DF800000A254FF480600190B4
:1024A00035E0B4F5006F07D128208DF800000B252A
:1024B0004FF4006001902AE0B4F5805F07D1282036
:1024C0008DF800000C254FF4805001901FE0B4F50A
:1024D000005F07D128208DF800000D254FF4005033
:1024E000019014E0B4F5804F07D128208DF800004A
:1024F0000E254FF48040019009E0B4F5004F06D15D
:1025000028208DF800000F254FF4004001904FF473
:10251000C060FEF757FE00208DF801008DF8020024
:1025200001208DF803006846FEF751FEADF80C401F
:1025300048208DF80F0003A94D48FFF717FE2946E4
:102540004046FFF7EEFEB9F1000F03D108208DF8E9
:1025500009000CE0B9F1010F03D10C208DF809003E
:1025600005E0B9F1020F02D110208DF8090000201A
:102570008DF8080001208DF80A0001A8FFF774FD0E
:10258000BDE8FF8710B504463948844208D10121CF
:10259000042000F081FA0021042000F07DFA46E0DA
:1025A0003448844208D10121082000F075FA002146
:1025B000082000F071FA3AE02F48844208D1012146
:1025C000102000F069FA0021102000F065FA2EE0DA
:1025D0002A48844208D10121202000F05DFA002120
:1025E000202000F059FA22E02548844208D1012138
:1025F000402000F051FA0021402000F04DFA16E092
:102600002048844208D10121802000F045FA0021B1
:10261000802000F041FA0AE01B48844207D10121E2
:10262000801500F039FA0021A01500F035FA10BD30
:1026300010B50121084600F02FFA0021012000F01A
:102640002BFA10BD4FF6FF71018002218170042129
:10265000C17070470246002093680B400BB1012007
:1026600000E0002070470146886880B27047000093
:1026700000080140000C014000100140001401401E
:1026800000180140001C01400020014008000140EA
:1026900002460020D3680B400BB1012000E000206F
:1026A00070470146C86880B27047416170470AB1FF
:1026B000016100E041617047C16070474FF48032B2
:1026C0000A43826181618261826982697047024640
:1026D00000202B4B18684FF68073184040EA021018
:1026E0000843274B186070472649C8617047F0B50A
:1026F0000A46002300240021002500F00046B6F120
:10270000004F02D11E4EF16901E01D4E7168C0F309
:10271000034583B200F44016B6F5401F08D121F0FE
:102720007061174E766826F07066154F7E6012E075
:1027300000F48016B6F5801F06D1032606FA05F4CC
:10274000A14341F0706106E0460D360103FA06F63A
:10275000B14341F0706122B1460D360103FA06F62D
:10276000314300F00046B6F1004F02D1044EF16152
:1027700001E0034E7160F0BD0249DC310860704732
:102780000000014000002042DF48006840F00100E6
:10279000DD49086008464068DC490840DA4948607D
:1027A00008460068DA490840D749086008460068CA
:1027B00020F4802008600846406820F4FE0048604D
:1027C0004FF41F0088607047CF49096821F48031B9
:1027D000CD4A11601146096821F480211160B0F5DD
:1027E000803F03D0B0F5802F0ED106E0C6490968BE
:1027F00041F48031C44A116007E0C349096841F4DB
:10280000A021C14A116000E000BF00BF704710B5B1
:1028100001460022002300204A11012A02D1BA4CAD
:10282000236806E0022A02D1B74C236A01E0B64CC5
:10283000636A01F01F02012494401C400CB1012086
:1028400000E0002010BD38B50020009000240025D5
:1028500000BF3120FFF7DBFF05460098401C0090C9
:102860000098B0F5A06F01D0002DF2D03120FFF715
:10287000CEFF08B1012400E00024204638BD014607
:102880000020A14A106820F0F80040EAC100106062
:102890007047A04908607047024600209A4B58686C
:1028A00020F47C1042EA01031843974B58607047AC
:1028B00098490866704701460020934A506820F006
:1028C00003000843506070478F48406800F00C00D8
:1028D0007047014600208C4A506820F0F000084301
:1028E0005060704701460020874A506820F4E0603D
:1028F00008435060704701460020834A506820F426
:10290000605040EAC1005060704729B17E4A527A57
:1029100002437D4B5A7204E07B4A527A82437A4BDF
:102920005A7270477B49D8310860704701460020D1
:10293000754A506820F440400843506070470021B9
:10294000714A20321170704A82F82010012802D09A
:1029500004280AD104E001216B4A2032117005E0FD
:102960000521694A2032117000E000BF00BF7047A6
:102970006949086070476449096A0143624A116203
:102980007047654944390860704730B5002100221E
:10299000002400235C4D6D6805F00C0121B1042971
:1029A00005D0082923D105E05C4D056022E05B4D90
:1029B00005601FE0544D6D6805F47012524D6D684E
:1029C00005F48034022505EB92421CB9544D554361
:1029D00005600BE04C4D6D6805F400351DB1504DA0
:1029E0005543056002E04D4D5543056002E04B4DF7
:1029F000056000BF00BF444D6D6805F0F001090996
:102A0000484D6B5C0568DD4045603F4D6D6805F4E1
:102A1000E061090A434D6B5C4568DD4085603A4DD5
:102A20006D6805F46051C90A3E4D6B5C4568DD4038
:102A3000C560354D6D6805F44041890B3A4D6B5CBE
:102A4000C568B5FBF3F5056130BD29B12E4A526961
:102A500002432D4B5A6104E02B4A526982432A4BB0
:102A60005A61704729B1284A92690243264B9A61FC
:102A700004E0254A92698243234B9A61704729B149
:102A8000214AD2690243204BDA6104E01E4AD2692E
:102A900082431D4BDA61704729B11B4AD268024359
:102AA000194BDA6004E0184AD2688243164BDA60A8
:102AB000704729B1144A12690243134B1A6104E0AA
:102AC000114A12698243104B1A617047124940390A
:102AD000086070470F49C86470470B49C871704758
:102AE0000948406A40F080700749486270470146D3
:102AF0000020054A92680A400AB1012000E0002047
:102B00007047014988727047001002400000FFF8CA
:102B1000FFFFF6FE000042428004424200127A00AB
:102B200000093D00140000202400002021B102888B
:102B300042F00102028004E002884FF6FE731A4060
:102B4000028070471AB183890B43838102E0838935
:102B50008B4383817047CA430282704700220288F8
:102B6000F84B98420ED0F84B98420BD0B0F1804F02
:102B700008D0F64B984205D0F54B984202D0F54B61
:102B8000984204D14FF68F731A404B881A43F24B88
:102B9000984207D0F14B984204D04FF6FF431A40B9
:102BA000CB881A4302808B8883850B880385E54B8D
:102BB00098420BD0E44B984208D0E94B984205D09C
:102BC000E84B984202D0E84B984201D10B7A038639
:102BD0000123838270477FB504460D46B4F1804FD0
:102BE00039D14FF4E060FEF7EDFA1C208DF80000BB
:102BF00000208DF8010002208DF8020001208DF8E0
:102C000003006846FEF7E3FA01210846FFF737FFA5
:102C1000681E80B2ADF808004720ADF8040000201F
:102C2000ADF80A00ADF8060001A94FF08040FFF7AB
:102C300095FF01218807FFF78EFF012211469007BB
:102C4000FFF780FF01218807FFF770FF00210120B7
:102C5000FFF715FF2DE1BD48844238D14FF4E06005
:102C6000FEF7B0FA1D208DF8000000208DF801005D
:102C700003208DF8020001208DF803006846FEF75E
:102C8000A6FA01210220FFF7FAFE681E80B2ADF815
:102C900008004720ADF804000020ADF80A00ADF8A8
:102CA000060001A92046FFF759FF01212046FFF742
:102CB00052FF012211462046FFF744FF0121204622
:102CC000FFF734FF00210220FFF7D9FEF1E0A04812
:102CD000844238D14FF4E060FEF774FA1E208DF87C
:102CE000000000208DF8010003208DF80200012073
:102CF0008DF803006846FEF76AFA01210420FFF709
:102D0000BEFE681E80B2ADF808004720ADF8040092
:102D10000020ADF80A00ADF8060001A92046FFF733
:102D20001DFF01212046FFF716FF01221146204614
:102D3000FFF708FF01212046FFF7F8FE00210420DD
:102D4000FFF79DFEB5E08348844238D14FF4E06040
:102D5000FEF738FA32208DF8000000208DF80100CF
:102D600003208DF8020001208DF803006846FEF76D
:102D70002EFA01210820FFF782FE681E80B2ADF80E
:102D800008004720ADF804000020ADF80A00ADF8B7
:102D9000060001A92046FFF7E1FE01212046FFF7CA
:102DA000DAFE012211462046FFF7CCFE0121204623
:102DB000FFF7BCFE00210820FFF761FE79E06648BE
:102DC000844238D14FF4E060FEF7FCF936208DF8EC
:102DD000000000208DF8010003208DF80200012082
:102DE0008DF803006846FEF7F2F901211020FFF785
:102DF00046FE681E80B2ADF808004720ADF804001A
:102E00000020ADF80A00ADF8060001A92046FFF742
:102E1000A5FE01212046FFF79EFE01221146204615
:102E2000FFF790FE01212046FFF780FE00211020D1
:102E3000FFF725FE3DE04948844238D14FF4E06079
:102E4000FEF7C0F937208DF8000000208DF8010052
:102E500003208DF8020001208DF803006846FEF77C
:102E6000B6F901212020FFF70AFE681E80B2ADF8F6
:102E700008004720ADF804000020ADF80A00ADF8C6
:102E8000060001A92046FFF769FE01212046FFF751
:102E900062FE012211462046FFF754FE0121204622
:102EA000FFF744FE00212020FFF7E9FD01E000BF0D
:102EB000FEE77FBD10B50446B4F1804F04D1012177
:102EC0000846FFF7DCFD29E02048844204D10121B7
:102ED0000220FFF7D4FD21E01D48844204D10121E6
:102EE0000420FFF7CCFD19E01A48844204D10121E7
:102EF0000820FFF7C4FD11E01748844204D10121E6
:102F00001020FFF7BCFD09E01448844204D10121E0
:102F10002020FFF7B4FD01E000BFFEE710BD10B5B3
:102F20000446B4F1804F04D100210120FFF7A7FD32
:102F30003EE00648844219D100210220FFF79FFDA0
:102F400036E00000002C0140003401400004004045
:102F500000080040000C0040001000400014004039
:102F6000004001400044014000480140FE488442C6
:102F700004D100210420FFF782FD19E0FB488442C0
:102F800004D100210820FFF77AFD11E0F8488442BF
:102F900004D100211020FFF772FD09E0F5488442BA
:102FA00004D100212020FFF76AFD01E000BFFEE709
:102FB00010BD10B50446F048844208D10121C01468
:102FC000FFF76AFD0021E014FFF766FDC4E0B4F1ED
:102FD000804F08D101210846FFF76BFD0021012039
:102FE000FFF767FDB8E0E548844208D101210220DF
:102FF000FFF75FFD00210220FFF75BFDACE0DA4840
:10300000844208D101210420FFF753FD0021042050
:10301000FFF74FFDA0E0D548844208D101210820E8
:10302000FFF747FD00210820FFF743FD94E0D0485B
:10303000844208D101211020FFF73BFD0021102020
:10304000FFF737FD88E0CB48844208D101212020DA
:10305000FFF72FFD00212020FFF72BFD7CE0C84863
:10306000844208D101214014FFF716FD00216014AD
:10307000FFF712FD70E0C348844209D10121C80462
:10308000FFF70AFD00214FF40020FFF705FD63E084
:10309000BD48844209D101210805FFF7FDFC00214C
:1030A0004FF48010FFF7F8FC56E0B848844209D18D
:1030B00001214805FFF7F0FC00214FF40010FFF755
:1030C000EBFC49E0B248844208D101214020FFF7DF
:1030D000F0FC00214020FFF7ECFC3DE0AD488442CD
:1030E00008D101218020FFF7E4FC00218020FFF7B8
:1030F000E0FC31E0A848844208D101218015FFF7A7
:10310000D8FC0021A015FFF7D4FC25E0A348844299
:1031100009D101210804FFF7BFFC00214FF48030E2
:10312000FFF7BAFC18E09E48844209D10121480407
:10313000FFF7B2FC00214FF40030FFF7ADFC0BE0CD
:103140009848844208D101218804FFF7A5FC00219A
:103150004FF48020FFF7A0FC10BD70B500240022C2
:103160000023058C4FF6FE7635400584028C83885B
:10317000048B4FF68F752C40B51E2C400D882C43C8
:10318000751E2A400D892A434D882A437A4DA8424C
:103190000BD07B4DA84208D0804DA84205D0804D71
:1031A000A84202D07F4DA84213D14FF6F7752A40AE
:1031B0004D892A434FF6FB752A408D882A434FF6E6
:1031C000FF652B404FF6FF552B408D892B43CD8952
:1031D0002B4383800483CD888586028470BD70B5BF
:1031E000002400220023058C4FF6EF76354005843D
:1031F000028C8388048B48F6FF752C404FF6FF4500
:103200002C400D884FF6FF7606EA05252C434FF635
:10321000DF752A400D8906EA05152A434D8806EA1E
:1032200005152A43544DA84202D0554DA8421DD140
:103230004FF67F752A404D894FF6FF7606EA051551
:103240002A434FF6BF752A408D8806EA05152A43A2
:103250004FF6FF352B404FF2FF752B408D8906EA64
:1032600085052B43CD8906EA85052B43838004839E
:10327000CD880587028470BD70B50024002200232C
:10328000058C4FF6FF6635400584028C8388848B5D
:103290004FF68F752C404FF6FC752C400D882C4353
:1032A0004FF6FF552A400D894FF6FF7606EA0525B1
:1032B0002A434D8806EA05252A432F4DA84202D00D
:1032C0002F4DA8421DD14FF2FF752A404D894FF670
:1032D000FF7606EA05252A434FF6FF352A408D88FA
:1032E00006EA05252A434EF6FF752B404DF6FF757D
:1032F0002B408D8906EA05152B43CD8906EA051575
:103300002B4383808483CD888587028470BD70B50C
:10331000002200230024058C4EF6FF7635400584FC
:10332000038C8488828B48F6FF752A404FF6FF4550
:103330002A400D884FF6FF7606EA05252A434DF60A
:10334000FF752B400D8906EA05352B434D8806EAAB
:1033500005352B43084DA84202D0094DA84229D17A
:103360004BF6FF752C401FE000080040000C0040A9
:103370000010004000140040002C014000040040F8
:1033800000340140004C0140005001400054014015
:1033900000180040001C0040002000400040014098
:1033A00000440140004801408D894FF6FF7606EA4F
:1033B00085152C4384808283CD88A0F840500384F7
:1033C00070BD828B4FF2FF331A408283828B4FF69F
:1033D000FF7303EA01231A4382837047F0B50C465A
:1033E0001546002200210026078C4EF6FF7C07EAD6
:1033F0000C070784828B018C4FF6FF7707EA0436AF
:1034000040F6FF473A404FF6FF7707EA05273A4371
:103410004FF6FF7707EA03373A43F64FB8420ED02C
:10342000F54FB8420BD0B0F1804F08D0F34FB842FF
:1034300005D0F34FB84202D0F24FB84206D14DF654
:10344000FF77394046F48057394305E047F6FF5788
:10345000394044F48057394382830184F0BD828B24
:103460004FF6F3731A408283828B0A43828370473C
:10347000F0B50C461546002200210026078C4FF6B9
:10348000FF6C07EA0C070784828B018C4FF6FF77ED
:1034900007EA04264FF60C773A404FF6FF7707EA23
:1034A00003172F433A43D34FB8420ED0D24FB842FE
:1034B0000BD0B0F1804F08D0D04FB84205D0D04FDC
:1034C000B84202D0CF4FB84206D14FF6FF5739402D
:1034D00046F48077394305E04FF2FF57394044F412
:1034E0008077394382830184F0BD028B4FF2FF3332
:1034F0001A400283028B4FF6FF7303EA01231A433B
:1035000002837047F0B50C461546002200210026C4
:10351000078C4FF6EF7C07EA0C070784028B018CBF
:103520004FF6FF7707EA041640F6FF473A404FF69A
:10353000FF7707EA03373A434FF6FF7707EA052795
:103540003A43AC4FB8420ED0AB4FB8420BD0B0F1BB
:10355000804F08D0A94FB84205D0A94FB84202D039
:10356000A84FB84206D14FF6DF77394046F0100732
:10357000394305E04FF65F77394044F0100739438F
:1035800002830184F0BD028B4FF6F3731A4002836D
:10359000028B0A4302837047F0B50C4615460022A1
:1035A0000021068C4FF6FE773E400684028B018C8C
:1035B0004FF60C7632407E1C06EA03162E43324349
:1035C0008C4EB0420ED08C4EB0420BD0B0F1804F3A
:1035D00008D08A4EB04205D0894EB04202D0894E02
:1035E000B04206D14FF6FD76314044F0010631433A
:1035F00005E04FF6F576314044F001063143028391
:103600000184F0BD70B505460C467A4885420ED05F
:10361000794885420BD0B5F1804F08D07748854274
:1036200005D07748854202D07648854200D100E037
:1036300000BF208850B92389A28861882846FFF7F7
:10364000ABFFE1882846FFF79EFF25E0208804288D
:103650000AD12389A28861882846FFF753FFE188B1
:103660002846FFF742FF17E0208808280AD123895F
:10367000A28861882846FFF7FBFEE1882846FFF70D
:10368000EEFE09E02389A28861882846FFF7A6FE9E
:10369000E1882846FFF795FE70BD2DE9F04105460B
:1036A0000C4600260127608808B9022600E00026A3
:1036B000A088012801D1022700E001272088A0B9B5
:1036C0002389A28861882846FFF766FFE18828469B
:1036D000FFF759FF23893A4631462846FFF712FF84
:1036E000E1882846FFF701FF13E02389A28861885B
:1036F0002846FFF707FFE1882846FFF7F6FE2389F3
:103700003A4631462846FFF747FFE1882846FFF74B
:103710003AFFBDE8F0810A884B881A438B881A4328
:10372000CB881A430B891A434B891A438B891A4356
:10373000A0F8442070474FF6FF718180002101807E
:10374000C1804180017270470021018041808180E9
:10375000C180018141818181C18170470021018047
:103760004180012181800021C180018170470021B9
:10377000018041808180C1800181418181817047C8
:1037800031B1B0F8442042F40042A0F8442005E0F2
:10379000B0F84420C2F30E02A0F8442070478182A2
:1037A000704741EA0203A0F8483070471AB1838994
:1037B0000B43838102E083898B43838170470189B6
:1037C0004FF6F8721140018170470A4600210189C5
:1037D0004FF68F73194011430181704730B504468D
:1037E0000D4629462046FFF7F0FF208940F00700EC
:1037F000208130BD002C0140003401400004004015
:1038000000080040000C00402DE9F04104460D4640
:1038100016461F46602D06D13B4601223146204602
:10382000FFF770FE05E03B46012231462046FFF7D8
:10383000B3FE29462046FFF7C8FF208940F0070065
:103840002081BDE8F08130B50C4600210189C9B264
:103850004FF6FF7505EA03251543254329430181EA
:1038600030BD2DE9F04105460E4617469846002426
:1038700043463A4631462846FFF7E5FF2C894FF686
:10388000F870044044F007044FF68F70044044F091
:1038900070042C81BDE8F081F0B504460D46164653
:1038A0001F463B46324629462046FFF7CCFF20897B
:1038B00040F480402081F0BD0185828270470A4635
:1038C000002101884FF68F73194011430180704722
:1038D000F0B50C4615461E46002100220023018942
:1038E000028B038C4FF6F877394021434FF6FC47A3
:1038F0003A4040F201173A434FF6DD773B404FF62E
:10390000FF7707EA06172F433B43018102830384B5
:10391000F0BD0A460021018B4FF68F731940114309
:10392000018370470A460021018B48F6FF73194056
:103930004FF6FF7303EA02231943018370470A46D7
:103940000021818B4FF68F7319401143818370479B
:103950000A460021818B48F6FF7319404FF6FF732A
:1039600003EA022319438183704721B1028842F0A0
:103970008002028004E002884FF67F731A400280C2
:10398000704721B1828842F00402828004E082887C
:103990004FF6FB731A408280704721B1828842F053
:1039A0000802828004E082884FF6F7731A40828012
:1039B000704721B1828842F00102828004E082884F
:1039C0004FF6FE731A40828070470A460021018B31
:1039D0004FF6F77319401143018370470A460021DF
:1039E000018B4FF2FF7319404FF6FF7303EA022376
:1039F0001943018370470A460021818B4FF6F77304
:103A000019401143818370470A460021818B4FF290
:103A1000FF7319404FF6FF7303EA022319438183B2
:103A200070470A460021018B4FF6FB731940114382
:103A3000018370470A460021018B4FF6FF3319407E
:103A40004FF6FF7303EA02231943018370470A46C6
:103A50000021818B4FF6FB7319401143818370471E
:103A60000A460021818B4FF6FF3319404FF6FF7352
:103A700003EA02231943818370470A460021018B20
:103A80004FF67F7319401143018370470A460021A6
:103A9000018BC1F30E014FF6FF7303EA02231943B2
:103AA000018370470A460021818B4FF67F731940CE
:103AB0001143818370470A460021818BC1F30E01B7
:103AC0004FF6FF7303EA02231943818370470A46C6
:103AD0000021018C4FF6FD7319401143018470479A
:103AE0000A460021018C4FF6F773194011430184F7
:103AF00070470A460021018C4FF6DF7319404FF6DC
:103B0000FF7303EA02131943018470470A46002138
:103B1000018C4FF67F7319404FF6FF7303EA0213CF
:103B20001943018470470A460021018C4FF6FF5368
:103B300019404FF6FF7303EA0223194301847047CB
:103B40000A460021018C4FF2FF7319404FF6FF73B4
:103B500003EA02231943018470470A460021018CBD
:103B60004DF6FF7319404FF6FF7303EA0233194312
:103B70000184704730B5002301248C40A3B2048C2B
:103B80009C430484048C02FA01F5ADB22C430484F6
:103B900030BD30B5002304248C40A3B2048C9C4378
:103BA0000484048C02FA01F5ADB22C43048430BDC8
:103BB00070B50346002000241846183001258D40BA
:103BC000ACB21D8CA5431D8409B1082909D100EBB5
:103BD0006100056825F070050560056815430560FE
:103BE0000EE00D1FC5F34E052844056825F4E04599
:103BF000056005684FF6FF7606EA02263543056044
:103C000070BD21B1028842F00202028004E0028805
:103C10004FF6FD731A400280704721B1028842F0CE
:103C20000402028004E002884FF6FB731A4002800F
:103C3000704721B1828842F08002828004E082884D
:103C40004FF67F731A408280704702884FF6F773F1
:103C50001A40028002880A430280704782884FF629
:103C60008F731A40828082880A438280704702895B
:103C70004FF6F8731A40028102890A4302817047A5
:103C800002894FF67F731A40028102890A4302813A
:103C900070478184704781857047818670470187AE
:103CA000704781877047A0F84010704702884FF630
:103CB000FF431A40028002880A430280704701468F
:103CC000888E70470146088F70470146888F70477D
:103CD0000146B1F8400070470146888C70470146A4
:103CE000088D704702460020138A0B400BB101205B
:103CF00000E00020704730B5024600200023002479
:103D0000158A05EA0103958905EA010413B10CB18E
:103D1000012000E0002030BDCA430282704700004D
:103D200010B50446FB48844209D101218803FEF7FF
:103D3000B3FE00214FF48040FEF7AEFE32E0F648BD
:103D4000844209D101214804FEF7B3FE00214FF45B
:103D50000030FEF7AEFE25E0F048844209D1012193
:103D60008804FEF7A6FE00214FF48020FEF7A1FE96
:103D700018E0EB48844209D10121C804FEF799FEFE
:103D800000214FF40020FEF794FE0BE0E54884424A
:103D900008D101210805FEF78CFE00214FF48010A8
:103DA000FEF787FE10BD2DE9F04786B005460E46AA
:103DB0000024A24600BFA1460027B08900B100BF81
:103DC0002F462C8A4CF6FF700440F08804432C8266
:103DD000AC894EF6F3100440B088318908437189EC
:103DE00008430443AC81AC8A4FF6FF400440B089DD
:103DF0000443AC8201A8FEF7C8FDC648874202D141
:103E0000DDF810A001E0DDF80CA0A88900F4004066
:103E100040B10AEBCA0000EB0A1031684900B0FB60
:103E2000F1F807E00AEBCA0000EB0A1031688900DC
:103E3000B0FBF1F86420B8FBF0F004012009642124
:103E400001FB1089A88900F4004040B1322000EB4A
:103E5000C900B0FBF1F000F00700044308E0322095
:103E600000EB09106421B0FBF1F000F00F000443F7
:103E70002C8106B0BDE8F0874FF416510160002197
:103E80008180C18001810C214181002181817047A5
:103E900010B502460020108A4FF2FF0318400B882D
:103EA0004C8823438C882343CC88234318431082B7
:103EB00010BD0021018041808180C180704721B107
:103EC000828942F40052828104E082894DF6FF73B8
:103ED0001A4082817047F0B5034600240026002571
:103EE000002040F66A17B94200D100BF1846C1F35E
:103EF000421401F01F06012707FA06F5012C01D133
:103F00000C3004E0022C01D1103000E014301AB162
:103F100007682F43076002E00768AF430760F0BD02
:103F20001AB1838A0B43838202E0838A8B438382A4
:103F30007047028A4FF6F0731A400282028A0A43DF
:103F40000282704782894FF2FF731A408281828910
:103F50000A438281704721B1828942F00202828144
:103F600004E082894FF6FD731A4082817047028A0D
:103F70004FF6DF731A400282028A0A4302827047B8
:103F800021B1028A42F48042028204E0028A4BF6A6
:103F9000FF731A4002827047C1F3080282807047A3
:103FA00001468888C0F308007047818941F001010B
:103FB00081817047028BD2B20283028B42EA0122D6
:103FC00002837047028B02F47F420283028B0A4312
:103FD0000283704721B1828A42F02002828204E08B
:103FE000828A4FF6DF731A408282704721B1828A3B
:103FF00042F01002828204E0828A4FF6EF731A4088
:104000008282704721B1828A42F00802828204E0F3
:10401000828A4FF6F7731A408282704721B18289F3
:1040200042F40042828103E08289C2F30E0282815F
:10403000704721B1828A42F40062828204E0828A5F
:104040004FF2FF731A4082827047828A4FF6FB73E9
:104050001A408282828A0A438282704721B1828A10
:1040600042F00202828204E0828A4FF6FD731A4017
:104070008282704702460020B1F5007F00D100BF68
:1040800013880B400BB1012000E00020704701F4C1
:104090000072B2F5007F00D100BFCA4302807047B2
:1040A00070B50246002400230025002040F66A1661
:1040B000B14200D100BFC1F3421501F01F03012638
:1040C00006FA03F3012D02D19689334006E0022D52
:1040D00002D1168A334001E0968A33400C12012641
:1040E00006FA04F41688344013B10CB1012000E044
:1040F000002070BD10B50022002340F66A14A142D2
:1041000000D100BF0A1201249440A3B2DC43048012
:1041100010BD00000038014000440040004800404D
:10412000004C00400050004000BF01F0A7F8012300
:1041300010222021F848FEF7A4F801231022402184
:10414000F548FEF79EF8012310229101F348FEF78F
:1041500098F801231022D101F048FEF792F80121CE
:10416000EF4801F0AEFA01224FF4E131ED4801F0E1
:10417000FCFA01224FF4E131EB4801F0F6FA00229B
:104180004FF4E131E94801F0F0FAE9A1E54801F026
:1041900023FD0021084602F044FA4FF47A71C80664
:1041A000FEF719FD4FF08040FEF784FEE5A1DD48E3
:1041B00001F012FDE9494988E84A928A891A08B251
:1041C00003F091F903F0D4F903F0E2F94FF48061C0
:1041D000D248FEF76AFA4FF40061D048FDF7C4FFF9
:1041E00091E2DF48007800287ED0DE4801F01CFE16
:1041F0000020DB490870D948B0F82D00422809D1C9
:104200004FF48061C548FEF750FA4FF40061C3488F
:10421000FEF74BFAD148B0F82D00422809D04FF4F0
:104220008061BE48FEF741FA4FF40061BB48FDF7DC
:104230009BFFCA48008901287DD0C84890F8260015
:104240000028F9D0C8480078002874D1C348B0F9D4
:104250003300C649B1F90010081A0FD1BF48B0F9B0
:104260002700C349B1F90010081A07D1BB48B0F9BB
:104270002900C049B1F90010081A0AD00121BE482E
:10428000FEF754FC0121BD48FEF750FC0020BC495C
:104290000860B248B0F8270081B2B748FFF7FDFCCC
:1042A000AE48B0F8290081B2B448FFF7F6FCAB483D
:1042B000B0F8330081B2B048FFF7F1FCA748B0F87E
:1042C0002700AB490880A548B0F82900A949088013
:1042D000A248B0F83300A5490880A9480068B0F5A5
:1042E000FA7F0DD3002100E0D1E0A348FEF71EFCC9
:1042F0000021A248FEF71AFC4FF4FA70A0490860AA
:104300000020A04908609548408901283BD1934985
:10431000B1F90010914AB2F91220881A03F055FD44
:104320000746994A994B03F0B7FD054603F0B2FAE8
:1043300004468A4900E0A6E0B1F90210874AB2F9C2
:104340001420881A03F041FD07468F4A8F4B03F073
:10435000A3FD054603F09EFA8146214602F061F96D
:104360008BA1704801F038FC7C48B0F902007B4A10
:10437000B2F91420811A6B4801F0A9FB09216948A0
:1043800001F068FB7FE075484089032839D1734903
:10439000B1F90010714AB2F91220881A03F015FD24
:1043A0000746794A7E4B03F077FD054603F072FA23
:1043B00004466A49B1F90210684AB2F91420881A11
:1043C00003F003FD0746704A754B03F065FD054693
:1043D00003F060FA8146214602F023F96CA15148AE
:1043E00001F0FAFB5D48B0F902005C4AB2F9142012
:1043F000811A4C4801F06BFB09214A4801F02AFB65
:1044000041E056484089022839D15449B1F9001099
:10441000524AB2F91220881A03F0D7FC0746614AC3
:10442000614B03F039FD054603F034FA04464B496D
:10443000B1F90210494AB2F91420881A03F0C5FCF8
:104440000746584A584B03F027FD054603F022FA69
:104450008146214602F0E5F84DA1324801F0BCFB4F
:104460003E48B0F902003D4AB2F91420811A2D48A5
:1044700001F02DFB09212B4801F0ECFA03E00021AB
:10448000084602F0CEF820212348FDF746FF4748B2
:10449000007800283ED0464890F82100002839D006
:1044A00020211D48FDF739FF2C480089012830D113
:1044B0002A4890F8260060B30021084602F064F80C
:1044C0000020304908603A480078F1280DD1384979
:1044D000886804F0ABF804463549486804F0A6F84B
:1044E0000546214602F050F86FE031480078F22886
:1044F00005D12F4AD169906902F093F865E02C4804
:104500000078F32856D12A4AD169906902F089F8D7
:104510005BE056E05FE0000000180140001401403D
:10452000A08601000044004000480040004C0040CC
:104530004D69636B583420524F5320436172200AF7
:1045400000000000496E69742053756363657373DE
:1045500066756C202E2E2E2E0A00000058020020B8
:104560002E0000201C0100203200002054000020FA
:1045700050000020520000200004004000080040CD
:104580004C000020380000209E0C8E9257E7583FC8
:104590005949414B4F4E4751495345543A20200009
:1045A00057E7683FA167B3EA73B5753F2F00002056
:1045B00038050020FE480078E12806D102F0D7FD3A
:1045C00003E00021084601F0DFFF0020F84981F8F0
:1045D0002100F8490870F848B0F82B00012805D1EF
:1045E0000020F6490870F649087009E0F248B0F872
:1045F0002B00012804D00120F0490870F049087010
:10460000F048007801283FD1EC48007801283BD1E0
:10461000ED48006803F0D9FB0746EC4AEC4B03F089
:104620003BFC054603F036F90446EA48006803F00F
:10463000CCFB0746E54AE64B03F02EFC054603F0AB
:1046400029F98146214601F0ECFF0020DD49087080
:10465000E1490860E1A1E64801F0BEFADD480168E1
:10466000E34801F034FA0921E14801F0F3F9E1A14E
:10467000DF4801F0B1FAD4480168DD4801F027FABB
:104680000921DB4801F0E6F9D3480068B0F57A7FEC
:104690001ED9C94890F8260038B90520C6490881B6
:1046A0000021084601F070FF0FE0C14890F821009A
:1046B00020B90021084601F067FF06E0D2480078E3
:1046C00018B90021084601F05FFF0020C2490860C8
:1046D000CE480078B8B10020CC490870CC480068BA
:1046E000142809D14021CB48FDF717FE0020C84906
:1046F000086002F0E7FB06E0C5480068142802D90C
:104700000020C34908606CE500BF011EA0F1010054
:10471000FBD170472DE9F04F9BB00125002400BF6D
:10472000002008906F1C05F1020805F1030905F14E
:10473000040A05F1050BA81D0790E81D069005F178
:104740000800059005F10900049005F10A000390A6
:1047500005F10B00029005F10C0001906421039813
:1047600048430390029848430290019848430190BF
:10477000AE222146641C09A84254EA222146641C48
:10478000425401222146641C425410222146641CDA
:104790004254A1480068020E2146641C09A84254F4
:1047A0009D480068C0F307422146641C09A8425492
:1047B00099480088C0F307222146641C09A8425486
:1047C000954802782046611CCCB209A90A543A0ADD
:1047D0002046611CCCB209A90A542046611CCCB207
:1047E00009A90F544FEA18222046611CCCB209A92E
:1047F0000A542046611CCCB209A901F800804FEA96
:1048000019222046611CCCB209A90A542046611C19
:10481000CCB209A901F800904FEA1A222046611C87
:10482000CCB209A90A542046611CCCB209A901F8EE
:1048300000A04FEA1B222046611CCCB209A90A54F1
:104840002046611CCCB209A901F800B00798020A01
:104850002046611CCCB209A90A542146621CD4B27C
:1048600009AA079850540698020A2046611CCCB247
:1048700009A90A542146621CD4B209AA06985054C8
:104880000598020A2046611CCCB209A90A542146A7
:10489000621CD4B209AA059850540498020A204612
:1048A000611CCCB209A90A542146621CD4B209AADF
:1048B000049850540398020A2046611CCCB209A9FE
:1048C0000A540398C2B22046611CCCB209A90A540A
:1048D0000298020A2046611CCCB209A90A54029827
:1048E000C2B22046611CCCB209A90A540198020A3E
:1048F0002046611CCCB209A90A540198C2B22046D4
:10490000611CCCB209A90A54601EC0B28DF8260001
:10491000022606E009A8815D089808440890701CEA
:10492000C6B2A642F6DB0898C2B22046611CCCB2E1
:1049300009A90A54EF222046611CCCB209A90A54E5
:10494000FE222046611CCCB209A90A5422463348F3
:1049500001F056F930480068401C2F4908601BB030
:10496000BDE8F08F2DE9F04198B04FF00108002428
:10497000002500271821684602F028FF002606E0DF
:1049800008F1020080B22DF81600701CC6B20C2E81
:10499000F6DBAE222046611CCCB206A90A54EA22FC
:1049A0002046611CCCB206A90A540122204637E0F9
:1049B000380500202F00002058020020320000207F
:1049C00033000020650000206C0000207B14AE47FF
:1049D000E17A843F6800002038000020555341529E
:1049E00054335265635F7370656564783A202000C4
:1049F000004800405553415254335265635F737011
:104A0000656564773A202000FD0000203100002019
:104A100040000020001801405800002000440040E1
:104A2000611CCCB206A90A5411222046611CCCB2EA
:104A300006A90A542F480068020E2046611CCCB219
:104A400006A90A542B480068C0F307422046611C9F
:104A5000CCB206A90A5427480088C0F30722204692
:104A6000611CCCB206A90A54224802782046611C77
:104A7000CCB206A90A54002510E03DF81500021238
:104A80002046611CCCB206A90A541DF81520204608
:104A9000611CCCB206A90A54681CC5B20C2DECDB13
:104AA000601EC0B28DF81A00022504E006A8405D21
:104AB0000744681CC5B2A542F8DB2046611CCCB295
:104AC00006A90F54EF222046611CCCB206A90A5455
:104AD000FE222046611CCCB206A90A542246064892
:104AE00001F08EF803480068401C0249086018B0C5
:104AF000BDE8F0815C00002000440040704700BF2A
:104B0000FEE700BFFEE700BFFEE700BFFEE770471D
:104B10007047704710B501218807FFF7ECF818B30C
:104B2000F7480068401CF6490860F6480068401CD9
:104B3000F4490860F4480068401CF3490860F348F1
:104B40000068401CF1490860F1480068401CF049C9
:104B50000860F0480068401CEE49086001F0B6FDAE
:104B600001218807FFF7D8F810BD0EB5EA4A07CA39
:104B70008DE807000121E948FFF7BDF818B10121D0
:104B8000E648FFF7C9F80EBD70B5002540F2255183
:104B9000E348FFF785FA60B1E148001D0088C4B220
:104BA000E04801780078401CDE4A1070DE4844542A
:104BB00014E040F22441DA48FFF772FA70B1D848A5
:104BC0000088C5B2D648001D0088C5B2D548007817
:104BD000401ED54908700120D24908700120D349F0
:104BE00008704021D248FDF798FB70BD70B50025D4
:104BF00040F22551CF48FFF753FAB8B1CD48001D18
:104C00000088C4B2CC4801780078401CCA4A1070B1
:104C1000CA48445440F22551C648FFF76BFAC748CA
:104C200000783E2802D00020C3490870C2480078AE
:104C30000E287DD1C148007818B90020BE490870FF
:104C400070BDBE4800783E2810D0BDA1B94800F024
:104C5000C3FFBA480178B74800F00BFFBBA1B548C5
:104C600000F0BAFF0020B4490870E9E7B348407883
:104C7000A22810D0B6A1AF4800F0AEFFAF484178EF
:104C8000AC4800F024FFB1A1AA4800F0A5FF002025
:104C9000A9490870D4E7A9488078012814D0A7480A
:104CA0008078FE2810D0ADA1A24800F095FFA3485F
:104CB0008178A04800F00BFFA4A19E4800F08CFF73
:104CC00000209D490870BBE79C48C0799B498979C1
:104CD00008449A49097A0844984949790844974907
:104CE000097B08449549C97A08449449897A08445B
:104CF0009249497A0844C0B29049497B884232D0EF
:104D000099A18C4800F068FF8C48417B894800F0ED
:104D1000DEFE8EA1874800F05FFF8848417B854812
:104D200000F098FE8548C079844A9279104400E0EA
:104D300061E0824A127A1044804A527910447F4AD4
:104D4000127B10447D4AD27A10447C4A927A1044F5
:104D50007A4A527A1044C1B2764800F07BFE0020B5
:104D6000754908706CE70120824908707348007A21
:104D700001067248C07941EA00417048807941EAF1
:104D800000206E49497908437B4908606B48007BE5
:104D900001066A48C07A41EA00416848807A41EADF
:104DA00000206649497A0843744908600020624936
:104DB00008706248C078052808D15A217048FEF76B
:104DC0006CFF5A215548FEF768FF14E05B48C07835
:104DD000062808D112216A48FEF75FFF12214F48CA
:104DE000FEF75BFF07E036216548FEF756FF3621E8
:104DF0004A48FEF752FF00BF22E710B5614800782D
:104E00006149087040F225516048FFF749F980B1C7
:104E100020215E48FFF73BF940F225515B48FFF740
:104E200069F95A48FFF7BCF8C4B22146574800F068
:104E300011FE544804700078EA2820D152480078C6
:104E4000AE281CD100205249088001205149087029
:104E50004D4801784E4802880088401C4C4B188011
:104E60004D48815447480278184601880088401C04
:104E7000188049484254012048490870C0E045481C
:104E8000007801283AD142480088022836DB4048A1
:104E9000008803280ADA3B4801783D4802880088E8
:104EA000401C3B4B18803C488154A9E03A4880782C
:104EB000801C3749098888420ADD32480178344825
:104EC00002880088401C324B18803348815497E098
:104ED00031488078801C2E490988884260D1294851
:104EE0000078EF285CD1274802782948018800889B
:104EF000401C274B18802848425481E07BE04FE05B
:104F0000380000203C000020400000204400002029
:104F1000480000204C000020E88900080004004000
:104F200000380140700000201C0100202E000020ED
:104F300000180140004800407100002036010020A8
:104F40006275665B305D3D3A202000000D0A00006E
:104F50006275665B325D3D3A202000006275665BDB
:104F6000335D3D3A20200000D6A1CEB2B4EDCEF3A1
:104F70003A20200065000020680000206C0000201E
:104F8000000800406300002064000020004400404E
:104F900060000020620000205C0500202F0000203F
:104FA000A3488078C01CA349098888421DD1A24823
:104FB0000078FE2819D1A04801789E480288008810
:104FC000401C9C4B18809A488154184600889B4985
:104FD000088001209A49087018460188944801F019
:104FE000E1FD0020974908700AE00020954908700B
:104FF0009049088004E000208E490880914908709B
:1050000001219148FFF74CF830B18F48FEF7C8FFF7
:1050100001218D48FFF73BF808218B48FFF740F846
:1050200030B18948FEF7BCFF08218748FFF72FF809
:1050300002218548FFF734F830B18348FEF7B0FF0E
:1050400002218148FFF723F840F225517E48FFF7FF
:1050500051F810BD7D48006820B17C480068401EB2
:105060007A490860704710B50120FDF763F810B168
:105070000120FDF770F810BD06E041F2883100BF55
:105080000A1EA1F10101FBD1021EA0F10100F4D121
:10509000704710B54FF4FA70FFF7EEFF80216C48AF
:1050A000FDF7D8FA01280BD136216A48FEF7F5FD45
:1050B00040216948FDF731F942F21070FFF7DCFF3B
:1050C0008020FDF748F810BD704710B54FF4003050
:1050D000FCF77AFF012809D14004FCF789FF012081
:1050E0005E49087080215E48FDF717F910BD00B5D4
:1050F00085B06A4600215B48FCF714FC684601F065
:105100008EFC4FF480715648FDF707F9012056498F
:10511000087005B000BD55490A780978491C534B01
:105120001970534988540978552903D000211A462B
:10513000117070474D4909780B2900DAF9E74C499D
:105140004978512904D052291ED0532954D137E02F
:1051500047498978464AD27841EA022109B2454A4C
:10516000118043490979424A527941EA022109B240
:10517000404A51803E4989793D4AD27941EA02212B
:1051800009B23C4A918037E039498978384AD27867
:1051900041EA022109B2374AD18035490979344AB6
:1051A000527941EA022109B2324A118130498979A2
:1051B0002F4AD27941EA022109B22E4A51811BE0DD
:1051C0002B4989782A4AD27841EA022109B2294A30
:1051D000918227490979264A527941EA022109B286
:1051E000244A518222498979214AD27941EA02210D
:1051F00009B2204AD18200BF00BF00211B4A1170B2
:10520000117000BF95E710B540F225511A48FEF71E
:1052100047FF58B140F225511748FEF76BFF16487B
:105220008088C4B22046FFF776FF00BF10BD0000A3
:105230005C0500206000002063000020F8000020D2
:10524000FA000020620000200044004028000020F6
:10525000000C014000040040001801402E00002016
:10526000001C01400064004031000020720000205A
:1052700044010020040100200050004030B54FF4EC
:105280003471B1F1807F01D301201DE021F07F4016
:10529000401E4FF0E022506150170F22002807DA1D
:1052A00013071D0E354B00F00F04241F1D5503E09E
:1052B00013071C0E324B1C5400BF00204FF0E0229D
:1052C000906107201061002008B100BFFEE74FF099
:1052D000E020006920F001004FF0E021086130BDBE
:1052E000284908604FF0E021096941F001014FF0C1
:1052F000E022116100BF234909680029FBD17047F2
:1053000010B501210320FDF7BAFB8020C1050880FC
:105310004FF6FF7088850020088501208882A7202D
:1053200008818420184908802020091D08804FF634
:10533000FF7015492C3108804720091F0880012083
:1053400011491431088080200F49083108800E4827
:10535000008840F001000C4908800805008840F0F2
:1053600001000905088010BD00204FF08041888CA5
:1053700000040549243109880844704718ED00E00D
:1053800000E400E0280000200004004008B54FF4CD
:10539000E060FBF717FF35208DF8000001208DF845
:1053A000010005208DF8020001208DF803006846F9
:1053B000FBF70DFF08BD30B585B005460C46012151
:1053C0002020FDF74FFB01211020FDF74BFB0121B1
:1053D0000805FDF754FB4FF48050ADF8100018207D
:1053E0008DF8130003208DF8120004A9F648FCF78D
:1053F000BDFE0420ADF810008DF8130004A9F34899
:10540000FCF7B4FE00950020ADF80400ADF80600EE
:10541000ADF80800ADF80C000C20ADF80A006946A4
:10542000EB48FEF7C0FC012C08D1FFF7AFFF0122CB
:1054300040F22551E648FEF74EFD05E0002240F21D
:105440002551E348FEF747FD0121E148FEF737FD0E
:1054500005B030BD08B54FF4E060FBF7B3FE342073
:105460008DF8000001208DF8010004208DF8020065
:1054700001208DF803006846FBF7A9FE08BD30B592
:1054800085B005460C4601211020FDF7EBFA0121FD
:10549000C804FDF7F4FA4FF48060ADF8100018204E
:1054A0008DF8130003208DF8120004A9C648FCF7FC
:1054B0005DFE4FF40060ADF8100004208DF813007D
:1054C00004A9C148FCF752FE00950020ADF8040085
:1054D000ADF80600ADF80800ADF80C000C20ADF8F2
:1054E0000A006946BB48FEF75EFC012C08D1FFF7B5
:1054F000B1FF012240F22551B648FEF7ECFC05E071
:10550000002240F22551B348FEF7E5FC0121B148E5
:10551000FEF7D5FC05B030BD08B54FF4E060FBF7F1
:1055200051FE27208DF8000001208DF80100032096
:105530008DF8020001208DF803006846FBF747FE56
:1055400008BD30B585B005460C4601210820FDF7A1
:1055500089FA01218804FDF792FA4FF48060ADF8D2
:10556000100018208DF8130003208DF8120004A9F4
:105570009948FCF7FBFD4FF40060ADF810000420E3
:105580008DF8130004A99448FCF7F0FD0095002065
:10559000ADF80400ADF80600ADF80800ADF80C0059
:1055A0000C20ADF80A0069468C48FEF7FCFB012C84
:1055B00008D1FFF7B1FF012240F225518748FEF7DD
:1055C0008AFC05E0002240F225518448FEF783FC66
:1055D00001218248FEF773FC05B030BD08B54FF4D9
:1055E000E060FBF7EFFD26208DF8000001208DF82C
:1055F000010002208DF8020001208DF803006846AA
:10560000FBF7E5FD08BD30B585B005460C46012128
:105610000420FDF727FA01214804FDF730FA0420A1
:10562000ADF8100018208DF8130003208DF812003B
:1056300004A96B48FCF79AFD0820ADF8100004207F
:105640008DF8130004A96648FCF790FD0095002032
:10565000ADF80400ADF80600ADF80800ADF80C0098
:105660000C20ADF80A0069465E48FEF79CFB012C51
:1056700008D1FFF7B3FF012240F225515948FEF748
:105680002AFC05E0002240F225515648FEF723FC93
:1056900001215448FEF713FC05B030BD08B54FF4A6
:1056A000E060FBF78FFD25208DF8000001208DF8CC
:1056B00001008DF802008DF803006846FBF787FDB6
:1056C00008BD30B585B005460C46012144F2040002
:1056D000FDF7C8F94FF40070ADF8100018208DF8F0
:1056E000130003208DF8120004A93D48FCF73EFD8D
:1056F0004FF48060ADF8100004208DF8130004A969
:105700003748FCF733FD00950020ADF804004FF456
:105710000050ADF80600C010ADF808000020ADF84C
:105720000C000420ADF80A0069462F48FEF73BFB49
:10573000012C08D1FFF7B2FF012240F225512A487F
:10574000FEF7C9FB05E0002240F225512648FEF78E
:10575000C2FB012240F224412348FEF7BCFB012199
:105760002148FEF7ACFB05B030BD70B504460D46D0
:1057700016461D48844204D131462846FFF7A1FF52
:1057800021E01848844204D131462846FFF73BFF08
:1057900019E01248844204D131462846FFF7D1FE71
:1057A00011E00C48844204D131462846FFF767FED9
:1057B00009E00748844204D131462846FFF7FBFD43
:1057C00001E000BFFEE770BD001001400014014081
:1057D00000500040004C0040000C014000480040D8
:1057E000000801400044004000380140F0B58DB091
:1057F00004460F4616461D46039710200490059652
:1058000000200690802007900020089009900A90C0
:105810001DB94FF440500B900DE0012D02D16803EB
:105820000B9008E0022D02D1E8020B9003E0032D5B
:1058300001D100200B9000200C90FE48844225D11D
:10584000001D029001210846FDF7FFF84FF4C060EB
:10585000FBF7B8FC0E208DF8040000208DF8050041
:1058600001208DF806008DF8070001A8FBF7AFFCBA
:1058700001220221F048FCF798FB02A9EE48FCF750
:105880005DFB0121EC48FCF784FB38E0EB488442E7
:1058900010D1001D029001210846FDF7D6F802A99B
:1058A000E5483C30FCF74AFB0121E3483C30FCF77B
:1058B00070FB24E0E248844210D1001D02900121D7
:1058C0000846FDF7C2F802A9DB482838FCF736FB8A
:1058D0000121D9482838FCF75CFB10E0D948844204
:1058E0000DD1001D029001210220FDF7AEF802A9A2
:1058F000D548FCF723FB0121D348FCF74AFB0DB048
:10590000F0BD30B58DB005460C4600212046FFF7AE
:10591000D8FE0021C748FEF7D2FA002240F2244107
:10592000C448FEF7D8FA01224021C248FEF7F8FA2F
:105930000121C048FEF7C3FA01210846FDF785F8AA
:10594000BD481430FCF758FABA48001D0290BF4811
:1059500003900020049019200590002006908020DC
:10596000079000200890099020200A90C0010B9019
:1059700000200C9002A9B0481430FCF7DFFA012196
:10598000AD481430FCF705FB0F208DF80400002013
:105990008DF8050003208DF8060001208DF8070022
:1059A00001A8FBF714FC01220221A3481430FCF7E4
:1059B000FCFA0DB030BD10B586B00446012144F2AA
:1059C0000400FDF74FF84FF40070ADF81400032009
:1059D0008DF8160018208DF8170005A99C48FCF7D3
:1059E000C5FB4FF48060ADF8140004208DF817005B
:1059F00005A99748FCF7BAFB25208DF80000032085
:105A00008DF801008DF8020001208DF80300684632
:105A1000FBF7DDFB01940020ADF808004FF40050C7
:105A2000ADF80A00C010ADF80C000020ADF8100071
:105A30000C20ADF80E0001A97E48FEF7B4F9012252
:105A400040217C48FEF76CFA01217A48FEF737FACC
:105A500006B010BD70B504460D4629462046FEF737
:105A60009BFA00BF80212046FEF704FB0028F9D0F6
:105A700070BDFEB507460E46354600208DF8000085
:105A800001240CE00A20B5FBF0F100FB115030308E
:105A90000DF804000A20B5FBF0F5601CC4B20A2022
:105AA000B5FBF0F00028EDD10A20B5FBF0F100FBCA
:105AB000115030300DF8040006E01DF8041038468F
:105AC000FFF7C8FF601EC4B2002CF6DCFEBDFEB5B9
:105AD00007460E46002E04DA76422D213846FFF79F
